{
	"data": {
		"bytecode": {
			"linkReferences": {},
			"object": "608060405234801562000010575f80fd5b5060405162003bc838038062003bc88339818101604052810190620000369190620003ad565b5f805f6101000a81548160ff021916908315150217905550620000625f801b33620001e260201b60201c565b50620000957f2c96ed4e571fec0cdc5b2ac10195fbd83ea322fe2010b5661fcb0cbedae86f7033620001e260201b60201c565b50620000c87f65d7a28e3265b37a6474929f336521b332c1681b933f6cb9f3376673440d862a33620001e260201b60201c565b508260085f6101000a81548173ffffffffffffffffffffffffffffffffffffffff021916908373ffffffffffffffffffffffffffffffffffffffff1602179055508160095f6101000a81548173ffffffffffffffffffffffffffffffffffffffff021916908373ffffffffffffffffffffffffffffffffffffffff16021790555080600a5f6101000a81548173ffffffffffffffffffffffffffffffffffffffff021916908373ffffffffffffffffffffffffffffffffffffffff1602179055506005600b819055506003600c819055506002600d819055506103e860115f6101000a81548161ffff021916908361ffff1602179055505f601160026101000a81548160ff02191690831515021790555050505062000406565b5f620001f58383620002dd60201b60201c565b620002d3576001805f8581526020019081526020015f205f015f8473ffffffffffffffffffffffffffffffffffffffff1673ffffffffffffffffffffffffffffffffffffffff1681526020019081526020015f205f6101000a81548160ff0219169083151502179055506200026f6200034160201b60201c565b73ffffffffffffffffffffffffffffffffffffffff168273ffffffffffffffffffffffffffffffffffffffff16847f2f8788117e7eff1d82e926ec794901d17c78024a50270940304540a733656f0d60405160405180910390a460019050620002d7565b5f90505b92915050565b5f60015f8481526020019081526020015f205f015f8373ffffffffffffffffffffffffffffffffffffffff1673ffffffffffffffffffffffffffffffffffffffff1681526020019081526020015f205f9054906101000a900460ff16905092915050565b5f33905090565b5f80fd5b5f73ffffffffffffffffffffffffffffffffffffffff82169050919050565b5f62000377826200034c565b9050919050565b62000389816200036b565b811462000394575f80fd5b50565b5f81519050620003a7816200037e565b92915050565b5f805f60608486031215620003c757620003c662000348565b5b5f620003d68682870162000397565b9350506020620003e98682870162000397565b9250506040620003fc8682870162000397565b9150509250925092565b6137b480620004145f395ff3fe6080604052600436106102c8575f3560e01c8063989c94b211610174578063b452e7c9116100db578063d547741f11610094578063e63ab1e91161006e578063e63ab1e914610a81578063ecb858c114610aab578063ed132ccf14610ad3578063f83d08ba14610afd576102c8565b8063d547741f14610a07578063dd55f3dc14610a2f578063e3b25f1914610a59576102c8565b8063b452e7c9146108fb578063b8deab6214610925578063be4c750514610961578063beabaec11461098b578063c6f0ea77146109b5578063c86c4b5f146109dd576102c8565b8063a69df4b51161012d578063a69df4b514610855578063a6e4d8021461086b578063a8e2cffc14610887578063ab55303e1461089d578063b01d324b146108c7578063b0ea4a8f146108f1576102c8565b8063989c94b21461075d578063995e5b661461078757806399b7e7d7146107c35780639c77f6b5146107eb5780639e5cbafd14610815578063a217fddf1461082b576102c8565b80633f4ba83a1161023357806371283639116101ec5780638456cb59116101c65780638456cb59146106b7578063847d983b146106cd5780638b7bcc86146106f757806391d1485414610721576102c8565b80637128363914610627578063786f98f2146106515780637c28db461461067b576102c8565b80633f4ba83a1461051d578063466e483d1461053357806357ef7dcf1461055b5780635c041425146105855780635c975abb146105c15780635e4c0652146105eb576102c8565b806313c747471161028557806313c74747146103ef578063140872311461042b5780631f6f6f4614610467578063248a9ca3146104915780632f2ff15d146104cd57806336568abe146104f5576102c8565b806301ffc9a7146102cc5780630498e1b714610308578063056249851461033257806307e1974f1461035c5780630dac9a34146103865780631337d240146103c5575b5f80fd5b3480156102d7575f80fd5b506102f260048036038101906102ed91906128fd565b610b13565b6040516102ff9190612942565b60405180910390f35b348015610313575f80fd5b5061031c610b8c565b6040516103299190612973565b60405180910390f35b34801561033d575f80fd5b50610346610b92565b6040516103539190612973565b60405180910390f35b348015610367575f80fd5b50610370610b98565b60405161037d91906129a8565b60405180910390f35b348015610391575f80fd5b506103ac60048036038101906103a791906129eb565b610bab565b6040516103bc9493929190612aa4565b60405180910390f35b3480156103d0575f80fd5b506103d9610bef565b6040516103e69190612b26565b60405180910390f35b3480156103fa575f80fd5b5061041560048036038101906104109190612b7a565b610c14565b6040516104229190612973565b60405180910390f35b348015610436575f80fd5b50610451600480360381019061044c9190612b7a565b610c5a565b60405161045e9190612973565b60405180910390f35b348015610472575f80fd5b5061047b610ca0565b6040516104889190612973565b60405180910390f35b34801561049c575f80fd5b506104b760048036038101906104b29190612bd8565b610ca5565b6040516104c49190612c12565b60405180910390f35b3480156104d8575f80fd5b506104f360048036038101906104ee9190612c2b565b610cc2565b005b348015610500575f80fd5b5061051b60048036038101906105169190612c2b565b610ce4565b005b348015610528575f80fd5b50610531610d5f565b005b34801561053e575f80fd5b5061055960048036038101906105549190612de3565b610d94565b005b348015610566575f80fd5b5061056f61170f565b60405161057c9190612973565b60405180910390f35b348015610590575f80fd5b506105ab60048036038101906105a69190612b7a565b611715565b6040516105b89190612973565b60405180910390f35b3480156105cc575f80fd5b506105d561172a565b6040516105e29190612942565b60405180910390f35b3480156105f6575f80fd5b50610611600480360381019061060c91906129eb565b61173e565b60405161061e9190612e4f565b60405180910390f35b348015610632575f80fd5b5061063b611766565b6040516106489190612973565b60405180910390f35b34801561065c575f80fd5b5061066561176f565b6040516106729190612973565b60405180910390f35b348015610686575f80fd5b506106a1600480360381019061069c91906129eb565b611775565b6040516106ae9190612973565b60405180910390f35b3480156106c2575f80fd5b506106cb611792565b005b3480156106d8575f80fd5b506106e16117c7565b6040516106ee9190612973565b60405180910390f35b348015610702575f80fd5b5061070b6117cd565b6040516107189190612973565b60405180910390f35b34801561072c575f80fd5b5061074760048036038101906107429190612c2b565b6117d3565b6040516107549190612942565b60405180910390f35b348015610768575f80fd5b50610771611837565b60405161077e9190612973565b60405180910390f35b348015610792575f80fd5b506107ad60048036038101906107a891906129eb565b61183d565b6040516107ba9190612e77565b60405180910390f35b3480156107ce575f80fd5b506107e960048036038101906107e49190612e90565b61186d565b005b3480156107f6575f80fd5b506107ff611967565b60405161080c9190612c12565b60405180910390f35b348015610820575f80fd5b5061082961198b565b005b348015610836575f80fd5b5061083f611a55565b60405161084c9190612c12565b60405180910390f35b348015610860575f80fd5b50610869611a5b565b005b61088560048036038101906108809190612ef1565b611aa2565b005b348015610892575f80fd5b5061089b611df8565b005b3480156108a8575f80fd5b506108b1611f69565b6040516108be9190612973565b60405180910390f35b3480156108d2575f80fd5b506108db611f6f565b6040516108e89190612942565b60405180910390f35b6108f9611f82565b005b348015610906575f80fd5b5061090f612011565b60405161091c9190612973565b60405180910390f35b348015610930575f80fd5b5061094b600480360381019061094691906129eb565b612017565b6040516109589190612e77565b60405180910390f35b34801561096c575f80fd5b50610975612050565b6040516109829190612973565b60405180910390f35b348015610996575f80fd5b5061099f612056565b6040516109ac9190612973565b60405180910390f35b3480156109c0575f80fd5b506109db60048036038101906109d69190612f9b565b61205b565b005b3480156109e8575f80fd5b506109f16120ad565b6040516109fe9190612b26565b60405180910390f35b348015610a12575f80fd5b50610a2d6004803603810190610a289190612c2b565b6120d2565b005b348015610a3a575f80fd5b50610a436120f4565b604051610a509190612973565b60405180910390f35b348015610a64575f80fd5b50610a7f6004803603810190610a7a91906129eb565b6120fa565b005b348015610a8c575f80fd5b50610a956121fd565b604051610aa29190612c12565b60405180910390f35b348015610ab6575f80fd5b50610ad16004803603810190610acc91906129eb565b612221565b005b348015610ade575f80fd5b50610ae7612324565b604051610af49190612b26565b60405180910390f35b348015610b08575f80fd5b50610b11612349565b005b5f7f7965db0b000000000000000000000000000000000000000000000000000000007bffffffffffffffffffffffffffffffffffffffffffffffffffffffff1916827bffffffffffffffffffffffffffffffffffffffffffffffffffffffff19161480610b855750610b8482612391565b5b9050919050565b600e5481565b6102bc81565b60115f9054906101000a900461ffff1681565b6002602052805f5260405f205f91509050805f015f9054906101000a900460ff1690806001015490806002015f9054906101000a900460ff16908060050154905084565b600a5f9054906101000a900473ffffffffffffffffffffffffffffffffffffffff1681565b5f60075f8373ffffffffffffffffffffffffffffffffffffffff1673ffffffffffffffffffffffffffffffffffffffff1681526020019081526020015f20549050919050565b5f60055f8373ffffffffffffffffffffffffffffffffffffffff1673ffffffffffffffffffffffffffffffffffffffff1681526020019081526020015f20549050919050565b606481565b5f60015f8381526020019081526020015f20600101549050919050565b610ccb82610ca5565b610cd4816123fa565b610cde838361240e565b50505050565b610cec6124f7565b73ffffffffffffffffffffffffffffffffffffffff168173ffffffffffffffffffffffffffffffffffffffff1614610d50576040517f6697b23200000000000000000000000000000000000000000000000000000000815260040160405180910390fd5b610d5a82826124fe565b505050565b7f65d7a28e3265b37a6474929f336521b332c1681b933f6cb9f3376673440d862a610d89816123fa565b610d916125e8565b50565b7f2c96ed4e571fec0cdc5b2ac10195fbd83ea322fe2010b5661fcb0cbedae86f70610dbe816123fa565b610dc6612648565b60011515601160029054906101000a900460ff16151514610de5575f80fd5b600354841115610e2a576040517f08c379a0000000000000000000000000000000000000000000000000000000008152600401610e2190613020565b60405180910390fd5b5f60025f8681526020019081526020015f2090505f6001811115610e5157610e50612a16565b5b815f015f9054906101000a900460ff166001811115610e7357610e72612a16565b5b14610eb3576040517f08c379a0000000000000000000000000000000000000000000000000000000008152600401610eaa90613088565b60405180910390fd5b5f805b82600501548111611551575f836004015f8381526020019081526020015f206040518060800160405290815f82015f9054906101000a900473ffffffffffffffffffffffffffffffffffffffff1673ffffffffffffffffffffffffffffffffffffffff1673ffffffffffffffffffffffffffffffffffffffff16815260200160018201805480602002602001604051908101604052809291908181526020018280548015610fa557602002820191905f5260205f20905f905b82829054906101000a900460ff1660ff16815260200190600101906020825f01049283019260010382029150808411610f6f5790505b5050505050815260200160028201548152602001600382015f9054906101000a900460ff166005811115610fdc57610fdb612a16565b5b6005811115610fee57610fed612a16565b5b8152505090505f80600581111561100857611007612a16565b5b8260600151600581111561101f5761101e612a16565b5b036110a2575f5b826020015151811161109c578760ff168360200151828151811061104d5761104c6130a6565b5b602002602001015160ff160361108957600a6102bc84604001516110719190613100565b61107b919061316e565b82611086919061319e565b91505b8080611094906131d1565b915050611026565b506113a5565b600160058111156110b6576110b5612a16565b5b826060015160058111156110cd576110cc612a16565b5b0361115a575f5b8260200151518111611154575f6111098a856020015184815181106110fc576110fb6130a6565b5b6020026020010151612689565b9050600a602285604001518361111f9190613100565b6111299190613100565b611133919061316e565b8361113e919061319e565b925050808061114c906131d1565b9150506110d4565b506113a4565b6002600581111561116e5761116d612a16565b5b8260600151600581111561118557611184612a16565b5b03611210575f5b826020015151811161120a575f6111c18a856020015184815181106111b4576111b36130a6565b5b6020026020010151612689565b9050600281106111f657600a606485604001516111de9190613100565b6111e8919061316e565b836111f3919061319e565b92505b508080611202906131d1565b91505061118c565b506113a3565b6003600581111561122457611223612a16565b5b8260600151600581111561123b5761123a612a16565b5b036112c7575f5b82602001515181116112c1575f6112778a8560200151848151811061126a576112696130a6565b5b6020026020010151612689565b9050600381106112ad57600a61012c85604001516112959190613100565b61129f919061316e565b836112aa919061319e565b92505b5080806112b9906131d1565b915050611242565b506113a2565b600460058111156112db576112da612a16565b5b826060015160058111156112f2576112f1612a16565b5b0361137e575f5b8260200151518111611378575f61132e8a85602001518481518110611321576113206130a6565b5b6020026020010151612689565b90506004811061136457600a610190856040015161134c9190613100565b611356919061316e565b83611361919061319e565b92505b508080611370906131d1565b9150506112f9565b506113a1565b8160200151518260400151611393919061319e565b8461139e919061319e565b93505b5b5b5b5b5f60055f845f015173ffffffffffffffffffffffffffffffffffffffff1673ffffffffffffffffffffffffffffffffffffffff1681526020019081526020015f20541115611448578060075f845f015173ffffffffffffffffffffffffffffffffffffffff1673ffffffffffffffffffffffffffffffffffffffff1681526020019081526020015f205f82825461143c919061319e565b9250508190555061153c565b815f015160045f60065f815480929190611461906131d1565b9190505581526020019081526020015f205f6101000a81548173ffffffffffffffffffffffffffffffffffffffff021916908373ffffffffffffffffffffffffffffffffffffffff16021790555060065460055f845f015173ffffffffffffffffffffffffffffffffffffffff1673ffffffffffffffffffffffffffffffffffffffff1681526020019081526020015f20819055508060075f845f015173ffffffffffffffffffffffffffffffffffffffff1673ffffffffffffffffffffffffffffffffffffffff1681526020019081526020015f20819055505b50508080611549906131d1565b915050610eb6565b505f8111156115fa575f600a600b548361156b9190613100565b611575919061316e565b90505f600a600c54846115889190613100565b611592919061316e565b90505f8183856115a29190613218565b6115ac9190613218565b905082600e5f8282546115bf919061319e565b9250508190555081600f5f8282546115d7919061319e565b925050819055508060105f8282546115ef919061319e565b925050819055505050505b6001825f015f6101000a81548160ff021916908360018111156116205761161f612a16565b5b021790555083826002015f6101000a81548160ff021916908360ff160217905550848260030190805190602001906116599291906127da565b505f60025f60035f815480929190611670906131d1565b9190505581526020019081526020015f2090505f815f015f6101000a81548160ff021916908360018111156116a8576116a7612a16565b5b02179055504281600101819055505f81600501819055508460ff16866040516116d191906132fc565b6040518091039020887fff2518a763d5df51512aa6a91d55e180d839636a19e21fd64715efe39341661660405160405180910390a450505050505050565b61012c81565b6005602052805f5260405f205f915090505481565b5f805f9054906101000a900460ff16905090565b5f60025f8381526020019081526020015f205f015f9054906101000a900460ff169050919050565b5f600354905090565b600d5481565b5f60025f8381526020019081526020015f20600501549050919050565b7f65d7a28e3265b37a6474929f336521b332c1681b933f6cb9f3376673440d862a6117bc816123fa565b6117c46126e8565b50565b61019081565b60065481565b5f60015f8481526020019081526020015f205f015f8373ffffffffffffffffffffffffffffffffffffffff1673ffffffffffffffffffffffffffffffffffffffff1681526020019081526020015f205f9054906101000a900460ff16905092915050565b60035481565b6004602052805f5260405f205f915054906101000a900473ffffffffffffffffffffffffffffffffffffffff1681565b7f2c96ed4e571fec0cdc5b2ac10195fbd83ea322fe2010b5661fcb0cbedae86f70611897816123fa565b61189f612648565b5f83101580156118af57505f8210155b6118ee576040517f08c379a00000000000000000000000000000000000000000000000000000000081526004016118e59061335c565b60405180910390fd5b5f8284600a6118fd9190613218565b6119079190613218565b90505f81101561194c576040517f08c379a0000000000000000000000000000000000000000000000000000000008152600401611943906133c4565b60405180910390fd5b83600b8190555082600c8190555080600d8190555050505050565b7f2c96ed4e571fec0cdc5b2ac10195fbd83ea322fe2010b5661fcb0cbedae86f7081565b7f2c96ed4e571fec0cdc5b2ac10195fbd83ea322fe2010b5661fcb0cbedae86f706119b5816123fa565b6119bd612648565b5f60025f60035f8154809291906119d3906131d1565b9190505581526020019081526020015f2090505f815f015f6101000a81548160ff02191690836001811115611a0b57611a0a612a16565b5b02179055504281600101819055505f81600501819055506003547fd5c78f62a4b60cf46593baffbd6eff674f4307dd65f40959ac96be8ac7b49f2960405160405180910390a25050565b5f801b81565b7f2c96ed4e571fec0cdc5b2ac10195fbd83ea322fe2010b5661fcb0cbedae86f70611a85816123fa565b5f601160026101000a81548160ff02191690831515021790555050565b611aaa612648565b5f1515601160029054906101000a900460ff16151514611ac8575f80fd5b5f34118015611ad657505f81115b611b15576040517f08c379a0000000000000000000000000000000000000000000000000000000008152600401611b0c90613452565b60405180910390fd5b34818451611b239190613100565b14611b63576040517f08c379a0000000000000000000000000000000000000000000000000000000008152600401611b5a906134ba565b60405180910390fd5b60115f9054906101000a900461ffff1661ffff1647611b82919061316e565b3410611bc3576040517f08c379a0000000000000000000000000000000000000000000000000000000008152600401611bba90613548565b60405180910390fd5b600354841115611c08576040517f08c379a0000000000000000000000000000000000000000000000000000000008152600401611bff90613020565b60405180910390fd5b5f60025f8681526020019081526020015f2090505f6001811115611c2f57611c2e612a16565b5b815f015f9054906101000a900460ff166001811115611c5157611c50612a16565b5b14611c91576040517f08c379a0000000000000000000000000000000000000000000000000000000008152600401611c8890613088565b60405180910390fd5b60405180608001604052803373ffffffffffffffffffffffffffffffffffffffff168152602001858152602001838152602001846005811115611cd757611cd6612a16565b5b815250816004015f836005015f815480929190611cf3906131d1565b9190505581526020019081526020015f205f820151815f015f6101000a81548173ffffffffffffffffffffffffffffffffffffffff021916908373ffffffffffffffffffffffffffffffffffffffff1602179055506020820151816001019080519060200190611d649291906127da565b50604082015181600201556060820151816003015f6101000a81548160ff02191690836005811115611d9957611d98612a16565b5b021790555090505083604051611daf91906132fc565b6040518091039020857ff551df8d6e0fe436ebe2ff7d859d7a4138446b61755da071196faa6ddc0d30298585604051611de99291906135ac565b60405180910390a35050505050565b611e00612648565b5f60075f3373ffffffffffffffffffffffffffffffffffffffff1673ffffffffffffffffffffffffffffffffffffffff1681526020019081526020015f205411611e7f576040517f08c379a0000000000000000000000000000000000000000000000000000000008152600401611e7690613643565b60405180910390fd5b5f600e5490508060075f3373ffffffffffffffffffffffffffffffffffffffff1673ffffffffffffffffffffffffffffffffffffffff1681526020019081526020015f205411611f0a5760075f3373ffffffffffffffffffffffffffffffffffffffff1673ffffffffffffffffffffffffffffffffffffffff1681526020019081526020015f205490505b3373ffffffffffffffffffffffffffffffffffffffff166108fc8290811502906040515f60405180830381858888f19350505050158015611f4d573d5f803e3d5ffd5b5080600e5f828254611f5f9190613218565b9250508190555050565b60105481565b601160029054906101000a900460ff1681565b7f2c96ed4e571fec0cdc5b2ac10195fbd83ea322fe2010b5661fcb0cbedae86f70611fac816123fa565b611fb4612648565b5f3411611ff6576040517f08c379a0000000000000000000000000000000000000000000000000000000008152600401611fed906136ab565b60405180910390fd5b34600e5f828254612007919061319e565b9250508190555050565b600f5481565b5f60045f8381526020019081526020015f205f9054906101000a900473ffffffffffffffffffffffffffffffffffffffff169050919050565b600b5481565b602281565b7f2c96ed4e571fec0cdc5b2ac10195fbd83ea322fe2010b5661fcb0cbedae86f70612085816123fa565b61208d612648565b8160115f6101000a81548161ffff021916908361ffff1602179055505050565b60085f9054906101000a900473ffffffffffffffffffffffffffffffffffffffff1681565b6120db82610ca5565b6120e4816123fa565b6120ee83836124fe565b50505050565b600c5481565b7f2c96ed4e571fec0cdc5b2ac10195fbd83ea322fe2010b5661fcb0cbedae86f70612124816123fa565b61212c612648565b5f8211801561213d5750600f548211155b61217c576040517f08c379a000000000000000000000000000000000000000000000000000000000815260040161217390613739565b60405180910390fd5b60095f9054906101000a900473ffffffffffffffffffffffffffffffffffffffff1673ffffffffffffffffffffffffffffffffffffffff166108fc8390811502906040515f60405180830381858888f193505050501580156121e0573d5f803e3d5ffd5b5081600f5f8282546121f29190613218565b925050819055505050565b7f65d7a28e3265b37a6474929f336521b332c1681b933f6cb9f3376673440d862a81565b7f2c96ed4e571fec0cdc5b2ac10195fbd83ea322fe2010b5661fcb0cbedae86f7061224b816123fa565b612253612648565b5f8211801561226457506010548211155b6122a3576040517f08c379a000000000000000000000000000000000000000000000000000000000815260040161229a90613739565b60405180910390fd5b600a5f9054906101000a900473ffffffffffffffffffffffffffffffffffffffff1673ffffffffffffffffffffffffffffffffffffffff166108fc8390811502906040515f60405180830381858888f19350505050158015612307573d5f803e3d5ffd5b508160105f8282546123199190613218565b925050819055505050565b60095f9054906101000a900473ffffffffffffffffffffffffffffffffffffffff1681565b7f2c96ed4e571fec0cdc5b2ac10195fbd83ea322fe2010b5661fcb0cbedae86f70612373816123fa565b6001601160026101000a81548160ff02191690831515021790555050565b5f7f01ffc9a7000000000000000000000000000000000000000000000000000000007bffffffffffffffffffffffffffffffffffffffffffffffffffffffff1916827bffffffffffffffffffffffffffffffffffffffffffffffffffffffff1916149050919050565b61240b816124066124f7565b612749565b50565b5f61241983836117d3565b6124ed576001805f8581526020019081526020015f205f015f8473ffffffffffffffffffffffffffffffffffffffff1673ffffffffffffffffffffffffffffffffffffffff1681526020019081526020015f205f6101000a81548160ff02191690831515021790555061248a6124f7565b73ffffffffffffffffffffffffffffffffffffffff168273ffffffffffffffffffffffffffffffffffffffff16847f2f8788117e7eff1d82e926ec794901d17c78024a50270940304540a733656f0d60405160405180910390a4600190506124f1565b5f90505b92915050565b5f33905090565b5f61250983836117d3565b156125de575f60015f8581526020019081526020015f205f015f8473ffffffffffffffffffffffffffffffffffffffff1673ffffffffffffffffffffffffffffffffffffffff1681526020019081526020015f205f6101000a81548160ff02191690831515021790555061257b6124f7565b73ffffffffffffffffffffffffffffffffffffffff168273ffffffffffffffffffffffffffffffffffffffff16847ff6391f5c32d9c69d2a47ea670b442974b53935d1edc7fd64eb21e047a839171b60405160405180910390a4600190506125e2565b5f90505b92915050565b6125f061279a565b5f805f6101000a81548160ff0219169083151502179055507f5db9ee0a495bf2e6ff9c91a7834c1ba4fdd244a5e8aa4e537bd38aeae4b073aa6126316124f7565b60405161263e9190612e77565b60405180910390a1565b61265061172a565b15612687576040517fd93c066500000000000000000000000000000000000000000000000000000000815260040160405180910390fd5b565b5f805f90505b83518110156126e1578260ff168482815181106126af576126ae6130a6565b5b602002602001015160ff16036126ce5781806126ca906131d1565b9250505b80806126d9906131d1565b91505061268f565b5092915050565b6126f0612648565b60015f806101000a81548160ff0219169083151502179055507f62e78cea01bee320cd4e420270b5ea74000d11b0c9f74754ebdbfc544b05a2586127326124f7565b60405161273f9190612e77565b60405180910390a1565b61275382826117d3565b6127965780826040517fe2517d3f00000000000000000000000000000000000000000000000000000000815260040161278d929190613757565b60405180910390fd5b5050565b6127a261172a565b6127d8576040517f8dfc202b00000000000000000000000000000000000000000000000000000000815260040160405180910390fd5b565b828054828255905f5260205f2090601f0160209004810192821561286b579160200282015f5b8382111561283d57835183826101000a81548160ff021916908360ff16021790555092602001926001016020815f01049283019260010302612800565b80156128695782816101000a81549060ff02191690556001016020815f0104928301926001030261283d565b505b509050612878919061287c565b5090565b5b80821115612893575f815f90555060010161287d565b5090565b5f604051905090565b5f80fd5b5f80fd5b5f7fffffffff0000000000000000000000000000000000000000000000000000000082169050919050565b6128dc816128a8565b81146128e6575f80fd5b50565b5f813590506128f7816128d3565b92915050565b5f60208284031215612912576129116128a0565b5b5f61291f848285016128e9565b91505092915050565b5f8115159050919050565b61293c81612928565b82525050565b5f6020820190506129555f830184612933565b92915050565b5f819050919050565b61296d8161295b565b82525050565b5f6020820190506129865f830184612964565b92915050565b5f61ffff82169050919050565b6129a28161298c565b82525050565b5f6020820190506129bb5f830184612999565b92915050565b6129ca8161295b565b81146129d4575f80fd5b50565b5f813590506129e5816129c1565b92915050565b5f60208284031215612a00576129ff6128a0565b5b5f612a0d848285016129d7565b91505092915050565b7f4e487b71000000000000000000000000000000000000000000000000000000005f52602160045260245ffd5b60028110612a5457612a53612a16565b5b50565b5f819050612a6482612a43565b919050565b5f612a7382612a57565b9050919050565b612a8381612a69565b82525050565b5f60ff82169050919050565b612a9e81612a89565b82525050565b5f608082019050612ab75f830187612a7a565b612ac46020830186612964565b612ad16040830185612a95565b612ade6060830184612964565b95945050505050565b5f73ffffffffffffffffffffffffffffffffffffffff82169050919050565b5f612b1082612ae7565b9050919050565b612b2081612b06565b82525050565b5f602082019050612b395f830184612b17565b92915050565b5f612b4982612ae7565b9050919050565b612b5981612b3f565b8114612b63575f80fd5b50565b5f81359050612b7481612b50565b92915050565b5f60208284031215612b8f57612b8e6128a0565b5b5f612b9c84828501612b66565b91505092915050565b5f819050919050565b612bb781612ba5565b8114612bc1575f80fd5b50565b5f81359050612bd281612bae565b92915050565b5f60208284031215612bed57612bec6128a0565b5b5f612bfa84828501612bc4565b91505092915050565b612c0c81612ba5565b82525050565b5f602082019050612c255f830184612c03565b92915050565b5f8060408385031215612c4157612c406128a0565b5b5f612c4e85828601612bc4565b9250506020612c5f85828601612b66565b9150509250929050565b5f80fd5b5f601f19601f8301169050919050565b7f4e487b71000000000000000000000000000000000000000000000000000000005f52604160045260245ffd5b612cb382612c6d565b810181811067ffffffffffffffff82111715612cd257612cd1612c7d565b5b80604052505050565b5f612ce4612897565b9050612cf08282612caa565b919050565b5f67ffffffffffffffff821115612d0f57612d0e612c7d565b5b602082029050602081019050919050565b5f80fd5b612d2d81612a89565b8114612d37575f80fd5b50565b5f81359050612d4881612d24565b92915050565b5f612d60612d5b84612cf5565b612cdb565b90508083825260208201905060208402830185811115612d8357612d82612d20565b5b835b81811015612dac5780612d988882612d3a565b845260208401935050602081019050612d85565b5050509392505050565b5f82601f830112612dca57612dc9612c69565b5b8135612dda848260208601612d4e565b91505092915050565b5f805f60608486031215612dfa57612df96128a0565b5b5f612e07868287016129d7565b935050602084013567ffffffffffffffff811115612e2857612e276128a4565b5b612e3486828701612db6565b9250506040612e4586828701612d3a565b9150509250925092565b5f602082019050612e625f830184612a7a565b92915050565b612e7181612b3f565b82525050565b5f602082019050612e8a5f830184612e68565b92915050565b5f8060408385031215612ea657612ea56128a0565b5b5f612eb3858286016129d7565b9250506020612ec4858286016129d7565b9150509250929050565b60068110612eda575f80fd5b50565b5f81359050612eeb81612ece565b92915050565b5f805f8060808587031215612f0957612f086128a0565b5b5f612f16878288016129d7565b945050602085013567ffffffffffffffff811115612f3757612f366128a4565b5b612f4387828801612db6565b9350506040612f5487828801612edd565b9250506060612f65878288016129d7565b91505092959194509250565b612f7a8161298c565b8114612f84575f80fd5b50565b5f81359050612f9581612f71565b92915050565b5f60208284031215612fb057612faf6128a0565b5b5f612fbd84828501612f87565b91505092915050565b5f82825260208201905092915050565b7f4265742053657373696f6e20496420496e76616c6964000000000000000000005f82015250565b5f61300a601683612fc6565b915061301582612fd6565b602082019050919050565b5f6020820190508181035f83015261303781612ffe565b9050919050565b7f4265742053657373696f6e204e6f742050726f63657373696f6e6700000000005f82015250565b5f613072601b83612fc6565b915061307d8261303e565b602082019050919050565b5f6020820190508181035f83015261309f81613066565b9050919050565b7f4e487b71000000000000000000000000000000000000000000000000000000005f52603260045260245ffd5b7f4e487b71000000000000000000000000000000000000000000000000000000005f52601160045260245ffd5b5f61310a8261295b565b91506131158361295b565b92508282026131238161295b565b9150828204841483151761313a576131396130d3565b5b5092915050565b7f4e487b71000000000000000000000000000000000000000000000000000000005f52601260045260245ffd5b5f6131788261295b565b91506131838361295b565b92508261319357613192613141565b5b828204905092915050565b5f6131a88261295b565b91506131b38361295b565b92508282019050808211156131cb576131ca6130d3565b5b92915050565b5f6131db8261295b565b91507fffffffffffffffffffffffffffffffffffffffffffffffffffffffffffffffff820361320d5761320c6130d3565b5b600182019050919050565b5f6132228261295b565b915061322d8361295b565b9250828203905081811115613245576132446130d3565b5b92915050565b5f81519050919050565b5f81905092915050565b5f819050602082019050919050565b61327781612a89565b82525050565b5f613288838361326e565b60208301905092915050565b5f602082019050919050565b5f6132aa8261324b565b6132b48185613255565b93506132bf8361325f565b805f5b838110156132ef5781516132d6888261327d565b97506132e183613294565b9250506001810190506132c2565b5085935050505092915050565b5f61330782846132a0565b915081905092915050565b7f496e76616c696420496e707574000000000000000000000000000000000000005f82015250565b5f613346600d83612fc6565b915061335182613312565b602082019050919050565b5f6020820190508181035f8301526133738161333a565b9050919050565b7f53756d204f6620526174696f73204d75737420457175616c20313000000000005f82015250565b5f6133ae601b83612fc6565b91506133b98261337a565b602082019050919050565b5f6020820190508181035f8301526133db816133a2565b9050919050565b7f42657420416d6f756e74204d7573742047726561746572205468616e205a45525f8201527f4f00000000000000000000000000000000000000000000000000000000000000602082015250565b5f61343c602183612fc6565b9150613447826133e2565b604082019050919050565b5f6020820190508181035f83015261346981613430565b9050919050565b7f42657420416d6f756e74204e6f74204d617463686564000000000000000000005f82015250565b5f6134a4601683612fc6565b91506134af82613470565b602082019050919050565b5f6020820190508181035f8301526134d181613498565b9050919050565b7f42657420416d6f756e742052656163686564204d61782042657420416d6f756e5f8201527f7400000000000000000000000000000000000000000000000000000000000000602082015250565b5f613532602183612fc6565b915061353d826134d8565b604082019050919050565b5f6020820190508181035f83015261355f81613526565b9050919050565b6006811061357757613576612a16565b5b50565b5f81905061358782613566565b919050565b5f6135968261357a565b9050919050565b6135a68161358c565b82525050565b5f6040820190506135bf5f83018561359d565b6135cc6020830184612964565b9392505050565b7f57696e6e696e6720416d6f756e74204973205a45524f206f72204e6f742045785f8201527f6973740000000000000000000000000000000000000000000000000000000000602082015250565b5f61362d602383612fc6565b9150613638826135d3565b604082019050919050565b5f6020820190508181035f83015261365a81613621565b9050919050565b7f416d6f756e74204d7573742042652047726561746572205468616e205a45524f5f82015250565b5f613695602083612fc6565b91506136a082613661565b602082019050919050565b5f6020820190508181035f8301526136c281613689565b9050919050565b7f416d6f756e74204d7573742042652047726561746572205468616e205a45524f5f8201527f20416e64204c657373205468616e20547265617375727920616d6f756e740000602082015250565b5f613723603e83612fc6565b915061372e826136c9565b604082019050919050565b5f6020820190508181035f83015261375081613717565b9050919050565b5f60408201905061376a5f830185612e68565b6137776020830184612c03565b939250505056fea2646970667358221220a9c6fad544a533a03fa003f599c23f8e6a94ae4792ef8536d32666a04036829464736f6c63430008150033",
			"opcodes": "PUSH1 0x80 PUSH1 0x40 MSTORE CALLVALUE DUP1 ISZERO PUSH3 0x10 JUMPI PUSH0 DUP1 REVERT JUMPDEST POP PUSH1 0x40 MLOAD PUSH3 0x3BC8 CODESIZE SUB DUP1 PUSH3 0x3BC8 DUP4 CODECOPY DUP2 DUP2 ADD PUSH1 0x40 MSTORE DUP2 ADD SWAP1 PUSH3 0x36 SWAP2 SWAP1 PUSH3 0x3AD JUMP JUMPDEST PUSH0 DUP1 PUSH0 PUSH2 0x100 EXP DUP2 SLOAD DUP2 PUSH1 0xFF MUL NOT AND SWAP1 DUP4 ISZERO ISZERO MUL OR SWAP1 SSTORE POP PUSH3 0x62 PUSH0 DUP1 SHL CALLER PUSH3 0x1E2 PUSH1 0x20 SHL PUSH1 0x20 SHR JUMP JUMPDEST POP PUSH3 0x95 PUSH32 0x2C96ED4E571FEC0CDC5B2AC10195FBD83EA322FE2010B5661FCB0CBEDAE86F70 CALLER PUSH3 0x1E2 PUSH1 0x20 SHL PUSH1 0x20 SHR JUMP JUMPDEST POP PUSH3 0xC8 PUSH32 0x65D7A28E3265B37A6474929F336521B332C1681B933F6CB9F3376673440D862A CALLER PUSH3 0x1E2 PUSH1 0x20 SHL PUSH1 0x20 SHR JUMP JUMPDEST POP DUP3 PUSH1 0x8 PUSH0 PUSH2 0x100 EXP DUP2 SLOAD DUP2 PUSH20 0xFFFFFFFFFFFFFFFFFFFFFFFFFFFFFFFFFFFFFFFF MUL NOT AND SWAP1 DUP4 PUSH20 0xFFFFFFFFFFFFFFFFFFFFFFFFFFFFFFFFFFFFFFFF AND MUL OR SWAP1 SSTORE POP DUP2 PUSH1 0x9 PUSH0 PUSH2 0x100 EXP DUP2 SLOAD DUP2 PUSH20 0xFFFFFFFFFFFFFFFFFFFFFFFFFFFFFFFFFFFFFFFF MUL NOT AND SWAP1 DUP4 PUSH20 0xFFFFFFFFFFFFFFFFFFFFFFFFFFFFFFFFFFFFFFFF AND MUL OR SWAP1 SSTORE POP DUP1 PUSH1 0xA PUSH0 PUSH2 0x100 EXP DUP2 SLOAD DUP2 PUSH20 0xFFFFFFFFFFFFFFFFFFFFFFFFFFFFFFFFFFFFFFFF MUL NOT AND SWAP1 DUP4 PUSH20 0xFFFFFFFFFFFFFFFFFFFFFFFFFFFFFFFFFFFFFFFF AND MUL OR SWAP1 SSTORE POP PUSH1 0x5 PUSH1 0xB DUP2 SWAP1 SSTORE POP PUSH1 0x3 PUSH1 0xC DUP2 SWAP1 SSTORE POP PUSH1 0x2 PUSH1 0xD DUP2 SWAP1 SSTORE POP PUSH2 0x3E8 PUSH1 0x11 PUSH0 PUSH2 0x100 EXP DUP2 SLOAD DUP2 PUSH2 0xFFFF MUL NOT AND SWAP1 DUP4 PUSH2 0xFFFF AND MUL OR SWAP1 SSTORE POP PUSH0 PUSH1 0x11 PUSH1 0x2 PUSH2 0x100 EXP DUP2 SLOAD DUP2 PUSH1 0xFF MUL NOT AND SWAP1 DUP4 ISZERO ISZERO MUL OR SWAP1 SSTORE POP POP POP POP PUSH3 0x406 JUMP JUMPDEST PUSH0 PUSH3 0x1F5 DUP4 DUP4 PUSH3 0x2DD PUSH1 0x20 SHL PUSH1 0x20 SHR JUMP JUMPDEST PUSH3 0x2D3 JUMPI PUSH1 0x1 DUP1 PUSH0 DUP6 DUP2 MSTORE PUSH1 0x20 ADD SWAP1 DUP2 MSTORE PUSH1 0x20 ADD PUSH0 KECCAK256 PUSH0 ADD PUSH0 DUP5 PUSH20 0xFFFFFFFFFFFFFFFFFFFFFFFFFFFFFFFFFFFFFFFF AND PUSH20 0xFFFFFFFFFFFFFFFFFFFFFFFFFFFFFFFFFFFFFFFF AND DUP2 MSTORE PUSH1 0x20 ADD SWAP1 DUP2 MSTORE PUSH1 0x20 ADD PUSH0 KECCAK256 PUSH0 PUSH2 0x100 EXP DUP2 SLOAD DUP2 PUSH1 0xFF MUL NOT AND SWAP1 DUP4 ISZERO ISZERO MUL OR SWAP1 SSTORE POP PUSH3 0x26F PUSH3 0x341 PUSH1 0x20 SHL PUSH1 0x20 SHR JUMP JUMPDEST PUSH20 0xFFFFFFFFFFFFFFFFFFFFFFFFFFFFFFFFFFFFFFFF AND DUP3 PUSH20 0xFFFFFFFFFFFFFFFFFFFFFFFFFFFFFFFFFFFFFFFF AND DUP5 PUSH32 0x2F8788117E7EFF1D82E926EC794901D17C78024A50270940304540A733656F0D PUSH1 0x40 MLOAD PUSH1 0x40 MLOAD DUP1 SWAP2 SUB SWAP1 LOG4 PUSH1 0x1 SWAP1 POP PUSH3 0x2D7 JUMP JUMPDEST PUSH0 SWAP1 POP JUMPDEST SWAP3 SWAP2 POP POP JUMP JUMPDEST PUSH0 PUSH1 0x1 PUSH0 DUP5 DUP2 MSTORE PUSH1 0x20 ADD SWAP1 DUP2 MSTORE PUSH1 0x20 ADD PUSH0 KECCAK256 PUSH0 ADD PUSH0 DUP4 PUSH20 0xFFFFFFFFFFFFFFFFFFFFFFFFFFFFFFFFFFFFFFFF AND PUSH20 0xFFFFFFFFFFFFFFFFFFFFFFFFFFFFFFFFFFFFFFFF AND DUP2 MSTORE PUSH1 0x20 ADD SWAP1 DUP2 MSTORE PUSH1 0x20 ADD PUSH0 KECCAK256 PUSH0 SWAP1 SLOAD SWAP1 PUSH2 0x100 EXP SWAP1 DIV PUSH1 0xFF AND SWAP1 POP SWAP3 SWAP2 POP POP JUMP JUMPDEST PUSH0 CALLER SWAP1 POP SWAP1 JUMP JUMPDEST PUSH0 DUP1 REVERT JUMPDEST PUSH0 PUSH20 0xFFFFFFFFFFFFFFFFFFFFFFFFFFFFFFFFFFFFFFFF DUP3 AND SWAP1 POP SWAP2 SWAP1 POP JUMP JUMPDEST PUSH0 PUSH3 0x377 DUP3 PUSH3 0x34C JUMP JUMPDEST SWAP1 POP SWAP2 SWAP1 POP JUMP JUMPDEST PUSH3 0x389 DUP2 PUSH3 0x36B JUMP JUMPDEST DUP2 EQ PUSH3 0x394 JUMPI PUSH0 DUP1 REVERT JUMPDEST POP JUMP JUMPDEST PUSH0 DUP2 MLOAD SWAP1 POP PUSH3 0x3A7 DUP2 PUSH3 0x37E JUMP JUMPDEST SWAP3 SWAP2 POP POP JUMP JUMPDEST PUSH0 DUP1 PUSH0 PUSH1 0x60 DUP5 DUP7 SUB SLT ISZERO PUSH3 0x3C7 JUMPI PUSH3 0x3C6 PUSH3 0x348 JUMP JUMPDEST JUMPDEST PUSH0 PUSH3 0x3D6 DUP7 DUP3 DUP8 ADD PUSH3 0x397 JUMP JUMPDEST SWAP4 POP POP PUSH1 0x20 PUSH3 0x3E9 DUP7 DUP3 DUP8 ADD PUSH3 0x397 JUMP JUMPDEST SWAP3 POP POP PUSH1 0x40 PUSH3 0x3FC DUP7 DUP3 DUP8 ADD PUSH3 0x397 JUMP JUMPDEST SWAP2 POP POP SWAP3 POP SWAP3 POP SWAP3 JUMP JUMPDEST PUSH2 0x37B4 DUP1 PUSH3 0x414 PUSH0 CODECOPY PUSH0 RETURN INVALID PUSH1 0x80 PUSH1 0x40 MSTORE PUSH1 0x4 CALLDATASIZE LT PUSH2 0x2C8 JUMPI PUSH0 CALLDATALOAD PUSH1 0xE0 SHR DUP1 PUSH4 0x989C94B2 GT PUSH2 0x174 JUMPI DUP1 PUSH4 0xB452E7C9 GT PUSH2 0xDB JUMPI DUP1 PUSH4 0xD547741F GT PUSH2 0x94 JUMPI DUP1 PUSH4 0xE63AB1E9 GT PUSH2 0x6E JUMPI DUP1 PUSH4 0xE63AB1E9 EQ PUSH2 0xA81 JUMPI DUP1 PUSH4 0xECB858C1 EQ PUSH2 0xAAB JUMPI DUP1 PUSH4 0xED132CCF EQ PUSH2 0xAD3 JUMPI DUP1 PUSH4 0xF83D08BA EQ PUSH2 0xAFD JUMPI PUSH2 0x2C8 JUMP JUMPDEST DUP1 PUSH4 0xD547741F EQ PUSH2 0xA07 JUMPI DUP1 PUSH4 0xDD55F3DC EQ PUSH2 0xA2F JUMPI DUP1 PUSH4 0xE3B25F19 EQ PUSH2 0xA59 JUMPI PUSH2 0x2C8 JUMP JUMPDEST DUP1 PUSH4 0xB452E7C9 EQ PUSH2 0x8FB JUMPI DUP1 PUSH4 0xB8DEAB62 EQ PUSH2 0x925 JUMPI DUP1 PUSH4 0xBE4C7505 EQ PUSH2 0x961 JUMPI DUP1 PUSH4 0xBEABAEC1 EQ PUSH2 0x98B JUMPI DUP1 PUSH4 0xC6F0EA77 EQ PUSH2 0x9B5 JUMPI DUP1 PUSH4 0xC86C4B5F EQ PUSH2 0x9DD JUMPI PUSH2 0x2C8 JUMP JUMPDEST DUP1 PUSH4 0xA69DF4B5 GT PUSH2 0x12D JUMPI DUP1 PUSH4 0xA69DF4B5 EQ PUSH2 0x855 JUMPI DUP1 PUSH4 0xA6E4D802 EQ PUSH2 0x86B JUMPI DUP1 PUSH4 0xA8E2CFFC EQ PUSH2 0x887 JUMPI DUP1 PUSH4 0xAB55303E EQ PUSH2 0x89D JUMPI DUP1 PUSH4 0xB01D324B EQ PUSH2 0x8C7 JUMPI DUP1 PUSH4 0xB0EA4A8F EQ PUSH2 0x8F1 JUMPI PUSH2 0x2C8 JUMP JUMPDEST DUP1 PUSH4 0x989C94B2 EQ PUSH2 0x75D JUMPI DUP1 PUSH4 0x995E5B66 EQ PUSH2 0x787 JUMPI DUP1 PUSH4 0x99B7E7D7 EQ PUSH2 0x7C3 JUMPI DUP1 PUSH4 0x9C77F6B5 EQ PUSH2 0x7EB JUMPI DUP1 PUSH4 0x9E5CBAFD EQ PUSH2 0x815 JUMPI DUP1 PUSH4 0xA217FDDF EQ PUSH2 0x82B JUMPI PUSH2 0x2C8 JUMP JUMPDEST DUP1 PUSH4 0x3F4BA83A GT PUSH2 0x233 JUMPI DUP1 PUSH4 0x71283639 GT PUSH2 0x1EC JUMPI DUP1 PUSH4 0x8456CB59 GT PUSH2 0x1C6 JUMPI DUP1 PUSH4 0x8456CB59 EQ PUSH2 0x6B7 JUMPI DUP1 PUSH4 0x847D983B EQ PUSH2 0x6CD JUMPI DUP1 PUSH4 0x8B7BCC86 EQ PUSH2 0x6F7 JUMPI DUP1 PUSH4 0x91D14854 EQ PUSH2 0x721 JUMPI PUSH2 0x2C8 JUMP JUMPDEST DUP1 PUSH4 0x71283639 EQ PUSH2 0x627 JUMPI DUP1 PUSH4 0x786F98F2 EQ PUSH2 0x651 JUMPI DUP1 PUSH4 0x7C28DB46 EQ PUSH2 0x67B JUMPI PUSH2 0x2C8 JUMP JUMPDEST DUP1 PUSH4 0x3F4BA83A EQ PUSH2 0x51D JUMPI DUP1 PUSH4 0x466E483D EQ PUSH2 0x533 JUMPI DUP1 PUSH4 0x57EF7DCF EQ PUSH2 0x55B JUMPI DUP1 PUSH4 0x5C041425 EQ PUSH2 0x585 JUMPI DUP1 PUSH4 0x5C975ABB EQ PUSH2 0x5C1 JUMPI DUP1 PUSH4 0x5E4C0652 EQ PUSH2 0x5EB JUMPI PUSH2 0x2C8 JUMP JUMPDEST DUP1 PUSH4 0x13C74747 GT PUSH2 0x285 JUMPI DUP1 PUSH4 0x13C74747 EQ PUSH2 0x3EF JUMPI DUP1 PUSH4 0x14087231 EQ PUSH2 0x42B JUMPI DUP1 PUSH4 0x1F6F6F46 EQ PUSH2 0x467 JUMPI DUP1 PUSH4 0x248A9CA3 EQ PUSH2 0x491 JUMPI DUP1 PUSH4 0x2F2FF15D EQ PUSH2 0x4CD JUMPI DUP1 PUSH4 0x36568ABE EQ PUSH2 0x4F5 JUMPI PUSH2 0x2C8 JUMP JUMPDEST DUP1 PUSH4 0x1FFC9A7 EQ PUSH2 0x2CC JUMPI DUP1 PUSH4 0x498E1B7 EQ PUSH2 0x308 JUMPI DUP1 PUSH4 0x5624985 EQ PUSH2 0x332 JUMPI DUP1 PUSH4 0x7E1974F EQ PUSH2 0x35C JUMPI DUP1 PUSH4 0xDAC9A34 EQ PUSH2 0x386 JUMPI DUP1 PUSH4 0x1337D240 EQ PUSH2 0x3C5 JUMPI JUMPDEST PUSH0 DUP1 REVERT JUMPDEST CALLVALUE DUP1 ISZERO PUSH2 0x2D7 JUMPI PUSH0 DUP1 REVERT JUMPDEST POP PUSH2 0x2F2 PUSH1 0x4 DUP1 CALLDATASIZE SUB DUP2 ADD SWAP1 PUSH2 0x2ED SWAP2 SWAP1 PUSH2 0x28FD JUMP JUMPDEST PUSH2 0xB13 JUMP JUMPDEST PUSH1 0x40 MLOAD PUSH2 0x2FF SWAP2 SWAP1 PUSH2 0x2942 JUMP JUMPDEST PUSH1 0x40 MLOAD DUP1 SWAP2 SUB SWAP1 RETURN JUMPDEST CALLVALUE DUP1 ISZERO PUSH2 0x313 JUMPI PUSH0 DUP1 REVERT JUMPDEST POP PUSH2 0x31C PUSH2 0xB8C JUMP JUMPDEST PUSH1 0x40 MLOAD PUSH2 0x329 SWAP2 SWAP1 PUSH2 0x2973 JUMP JUMPDEST PUSH1 0x40 MLOAD DUP1 SWAP2 SUB SWAP1 RETURN JUMPDEST CALLVALUE DUP1 ISZERO PUSH2 0x33D JUMPI PUSH0 DUP1 REVERT JUMPDEST POP PUSH2 0x346 PUSH2 0xB92 JUMP JUMPDEST PUSH1 0x40 MLOAD PUSH2 0x353 SWAP2 SWAP1 PUSH2 0x2973 JUMP JUMPDEST PUSH1 0x40 MLOAD DUP1 SWAP2 SUB SWAP1 RETURN JUMPDEST CALLVALUE DUP1 ISZERO PUSH2 0x367 JUMPI PUSH0 DUP1 REVERT JUMPDEST POP PUSH2 0x370 PUSH2 0xB98 JUMP JUMPDEST PUSH1 0x40 MLOAD PUSH2 0x37D SWAP2 SWAP1 PUSH2 0x29A8 JUMP JUMPDEST PUSH1 0x40 MLOAD DUP1 SWAP2 SUB SWAP1 RETURN JUMPDEST CALLVALUE DUP1 ISZERO PUSH2 0x391 JUMPI PUSH0 DUP1 REVERT JUMPDEST POP PUSH2 0x3AC PUSH1 0x4 DUP1 CALLDATASIZE SUB DUP2 ADD SWAP1 PUSH2 0x3A7 SWAP2 SWAP1 PUSH2 0x29EB JUMP JUMPDEST PUSH2 0xBAB JUMP JUMPDEST PUSH1 0x40 MLOAD PUSH2 0x3BC SWAP5 SWAP4 SWAP3 SWAP2 SWAP1 PUSH2 0x2AA4 JUMP JUMPDEST PUSH1 0x40 MLOAD DUP1 SWAP2 SUB SWAP1 RETURN JUMPDEST CALLVALUE DUP1 ISZERO PUSH2 0x3D0 JUMPI PUSH0 DUP1 REVERT JUMPDEST POP PUSH2 0x3D9 PUSH2 0xBEF JUMP JUMPDEST PUSH1 0x40 MLOAD PUSH2 0x3E6 SWAP2 SWAP1 PUSH2 0x2B26 JUMP JUMPDEST PUSH1 0x40 MLOAD DUP1 SWAP2 SUB SWAP1 RETURN JUMPDEST CALLVALUE DUP1 ISZERO PUSH2 0x3FA JUMPI PUSH0 DUP1 REVERT JUMPDEST POP PUSH2 0x415 PUSH1 0x4 DUP1 CALLDATASIZE SUB DUP2 ADD SWAP1 PUSH2 0x410 SWAP2 SWAP1 PUSH2 0x2B7A JUMP JUMPDEST PUSH2 0xC14 JUMP JUMPDEST PUSH1 0x40 MLOAD PUSH2 0x422 SWAP2 SWAP1 PUSH2 0x2973 JUMP JUMPDEST PUSH1 0x40 MLOAD DUP1 SWAP2 SUB SWAP1 RETURN JUMPDEST CALLVALUE DUP1 ISZERO PUSH2 0x436 JUMPI PUSH0 DUP1 REVERT JUMPDEST POP PUSH2 0x451 PUSH1 0x4 DUP1 CALLDATASIZE SUB DUP2 ADD SWAP1 PUSH2 0x44C SWAP2 SWAP1 PUSH2 0x2B7A JUMP JUMPDEST PUSH2 0xC5A JUMP JUMPDEST PUSH1 0x40 MLOAD PUSH2 0x45E SWAP2 SWAP1 PUSH2 0x2973 JUMP JUMPDEST PUSH1 0x40 MLOAD DUP1 SWAP2 SUB SWAP1 RETURN JUMPDEST CALLVALUE DUP1 ISZERO PUSH2 0x472 JUMPI PUSH0 DUP1 REVERT JUMPDEST POP PUSH2 0x47B PUSH2 0xCA0 JUMP JUMPDEST PUSH1 0x40 MLOAD PUSH2 0x488 SWAP2 SWAP1 PUSH2 0x2973 JUMP JUMPDEST PUSH1 0x40 MLOAD DUP1 SWAP2 SUB SWAP1 RETURN JUMPDEST CALLVALUE DUP1 ISZERO PUSH2 0x49C JUMPI PUSH0 DUP1 REVERT JUMPDEST POP PUSH2 0x4B7 PUSH1 0x4 DUP1 CALLDATASIZE SUB DUP2 ADD SWAP1 PUSH2 0x4B2 SWAP2 SWAP1 PUSH2 0x2BD8 JUMP JUMPDEST PUSH2 0xCA5 JUMP JUMPDEST PUSH1 0x40 MLOAD PUSH2 0x4C4 SWAP2 SWAP1 PUSH2 0x2C12 JUMP JUMPDEST PUSH1 0x40 MLOAD DUP1 SWAP2 SUB SWAP1 RETURN JUMPDEST CALLVALUE DUP1 ISZERO PUSH2 0x4D8 JUMPI PUSH0 DUP1 REVERT JUMPDEST POP PUSH2 0x4F3 PUSH1 0x4 DUP1 CALLDATASIZE SUB DUP2 ADD SWAP1 PUSH2 0x4EE SWAP2 SWAP1 PUSH2 0x2C2B JUMP JUMPDEST PUSH2 0xCC2 JUMP JUMPDEST STOP JUMPDEST CALLVALUE DUP1 ISZERO PUSH2 0x500 JUMPI PUSH0 DUP1 REVERT JUMPDEST POP PUSH2 0x51B PUSH1 0x4 DUP1 CALLDATASIZE SUB DUP2 ADD SWAP1 PUSH2 0x516 SWAP2 SWAP1 PUSH2 0x2C2B JUMP JUMPDEST PUSH2 0xCE4 JUMP JUMPDEST STOP JUMPDEST CALLVALUE DUP1 ISZERO PUSH2 0x528 JUMPI PUSH0 DUP1 REVERT JUMPDEST POP PUSH2 0x531 PUSH2 0xD5F JUMP JUMPDEST STOP JUMPDEST CALLVALUE DUP1 ISZERO PUSH2 0x53E JUMPI PUSH0 DUP1 REVERT JUMPDEST POP PUSH2 0x559 PUSH1 0x4 DUP1 CALLDATASIZE SUB DUP2 ADD SWAP1 PUSH2 0x554 SWAP2 SWAP1 PUSH2 0x2DE3 JUMP JUMPDEST PUSH2 0xD94 JUMP JUMPDEST STOP JUMPDEST CALLVALUE DUP1 ISZERO PUSH2 0x566 JUMPI PUSH0 DUP1 REVERT JUMPDEST POP PUSH2 0x56F PUSH2 0x170F JUMP JUMPDEST PUSH1 0x40 MLOAD PUSH2 0x57C SWAP2 SWAP1 PUSH2 0x2973 JUMP JUMPDEST PUSH1 0x40 MLOAD DUP1 SWAP2 SUB SWAP1 RETURN JUMPDEST CALLVALUE DUP1 ISZERO PUSH2 0x590 JUMPI PUSH0 DUP1 REVERT JUMPDEST POP PUSH2 0x5AB PUSH1 0x4 DUP1 CALLDATASIZE SUB DUP2 ADD SWAP1 PUSH2 0x5A6 SWAP2 SWAP1 PUSH2 0x2B7A JUMP JUMPDEST PUSH2 0x1715 JUMP JUMPDEST PUSH1 0x40 MLOAD PUSH2 0x5B8 SWAP2 SWAP1 PUSH2 0x2973 JUMP JUMPDEST PUSH1 0x40 MLOAD DUP1 SWAP2 SUB SWAP1 RETURN JUMPDEST CALLVALUE DUP1 ISZERO PUSH2 0x5CC JUMPI PUSH0 DUP1 REVERT JUMPDEST POP PUSH2 0x5D5 PUSH2 0x172A JUMP JUMPDEST PUSH1 0x40 MLOAD PUSH2 0x5E2 SWAP2 SWAP1 PUSH2 0x2942 JUMP JUMPDEST PUSH1 0x40 MLOAD DUP1 SWAP2 SUB SWAP1 RETURN JUMPDEST CALLVALUE DUP1 ISZERO PUSH2 0x5F6 JUMPI PUSH0 DUP1 REVERT JUMPDEST POP PUSH2 0x611 PUSH1 0x4 DUP1 CALLDATASIZE SUB DUP2 ADD SWAP1 PUSH2 0x60C SWAP2 SWAP1 PUSH2 0x29EB JUMP JUMPDEST PUSH2 0x173E JUMP JUMPDEST PUSH1 0x40 MLOAD PUSH2 0x61E SWAP2 SWAP1 PUSH2 0x2E4F JUMP JUMPDEST PUSH1 0x40 MLOAD DUP1 SWAP2 SUB SWAP1 RETURN JUMPDEST CALLVALUE DUP1 ISZERO PUSH2 0x632 JUMPI PUSH0 DUP1 REVERT JUMPDEST POP PUSH2 0x63B PUSH2 0x1766 JUMP JUMPDEST PUSH1 0x40 MLOAD PUSH2 0x648 SWAP2 SWAP1 PUSH2 0x2973 JUMP JUMPDEST PUSH1 0x40 MLOAD DUP1 SWAP2 SUB SWAP1 RETURN JUMPDEST CALLVALUE DUP1 ISZERO PUSH2 0x65C JUMPI PUSH0 DUP1 REVERT JUMPDEST POP PUSH2 0x665 PUSH2 0x176F JUMP JUMPDEST PUSH1 0x40 MLOAD PUSH2 0x672 SWAP2 SWAP1 PUSH2 0x2973 JUMP JUMPDEST PUSH1 0x40 MLOAD DUP1 SWAP2 SUB SWAP1 RETURN JUMPDEST CALLVALUE DUP1 ISZERO PUSH2 0x686 JUMPI PUSH0 DUP1 REVERT JUMPDEST POP PUSH2 0x6A1 PUSH1 0x4 DUP1 CALLDATASIZE SUB DUP2 ADD SWAP1 PUSH2 0x69C SWAP2 SWAP1 PUSH2 0x29EB JUMP JUMPDEST PUSH2 0x1775 JUMP JUMPDEST PUSH1 0x40 MLOAD PUSH2 0x6AE SWAP2 SWAP1 PUSH2 0x2973 JUMP JUMPDEST PUSH1 0x40 MLOAD DUP1 SWAP2 SUB SWAP1 RETURN JUMPDEST CALLVALUE DUP1 ISZERO PUSH2 0x6C2 JUMPI PUSH0 DUP1 REVERT JUMPDEST POP PUSH2 0x6CB PUSH2 0x1792 JUMP JUMPDEST STOP JUMPDEST CALLVALUE DUP1 ISZERO PUSH2 0x6D8 JUMPI PUSH0 DUP1 REVERT JUMPDEST POP PUSH2 0x6E1 PUSH2 0x17C7 JUMP JUMPDEST PUSH1 0x40 MLOAD PUSH2 0x6EE SWAP2 SWAP1 PUSH2 0x2973 JUMP JUMPDEST PUSH1 0x40 MLOAD DUP1 SWAP2 SUB SWAP1 RETURN JUMPDEST CALLVALUE DUP1 ISZERO PUSH2 0x702 JUMPI PUSH0 DUP1 REVERT JUMPDEST POP PUSH2 0x70B PUSH2 0x17CD JUMP JUMPDEST PUSH1 0x40 MLOAD PUSH2 0x718 SWAP2 SWAP1 PUSH2 0x2973 JUMP JUMPDEST PUSH1 0x40 MLOAD DUP1 SWAP2 SUB SWAP1 RETURN JUMPDEST CALLVALUE DUP1 ISZERO PUSH2 0x72C JUMPI PUSH0 DUP1 REVERT JUMPDEST POP PUSH2 0x747 PUSH1 0x4 DUP1 CALLDATASIZE SUB DUP2 ADD SWAP1 PUSH2 0x742 SWAP2 SWAP1 PUSH2 0x2C2B JUMP JUMPDEST PUSH2 0x17D3 JUMP JUMPDEST PUSH1 0x40 MLOAD PUSH2 0x754 SWAP2 SWAP1 PUSH2 0x2942 JUMP JUMPDEST PUSH1 0x40 MLOAD DUP1 SWAP2 SUB SWAP1 RETURN JUMPDEST CALLVALUE DUP1 ISZERO PUSH2 0x768 JUMPI PUSH0 DUP1 REVERT JUMPDEST POP PUSH2 0x771 PUSH2 0x1837 JUMP JUMPDEST PUSH1 0x40 MLOAD PUSH2 0x77E SWAP2 SWAP1 PUSH2 0x2973 JUMP JUMPDEST PUSH1 0x40 MLOAD DUP1 SWAP2 SUB SWAP1 RETURN JUMPDEST CALLVALUE DUP1 ISZERO PUSH2 0x792 JUMPI PUSH0 DUP1 REVERT JUMPDEST POP PUSH2 0x7AD PUSH1 0x4 DUP1 CALLDATASIZE SUB DUP2 ADD SWAP1 PUSH2 0x7A8 SWAP2 SWAP1 PUSH2 0x29EB JUMP JUMPDEST PUSH2 0x183D JUMP JUMPDEST PUSH1 0x40 MLOAD PUSH2 0x7BA SWAP2 SWAP1 PUSH2 0x2E77 JUMP JUMPDEST PUSH1 0x40 MLOAD DUP1 SWAP2 SUB SWAP1 RETURN JUMPDEST CALLVALUE DUP1 ISZERO PUSH2 0x7CE JUMPI PUSH0 DUP1 REVERT JUMPDEST POP PUSH2 0x7E9 PUSH1 0x4 DUP1 CALLDATASIZE SUB DUP2 ADD SWAP1 PUSH2 0x7E4 SWAP2 SWAP1 PUSH2 0x2E90 JUMP JUMPDEST PUSH2 0x186D JUMP JUMPDEST STOP JUMPDEST CALLVALUE DUP1 ISZERO PUSH2 0x7F6 JUMPI PUSH0 DUP1 REVERT JUMPDEST POP PUSH2 0x7FF PUSH2 0x1967 JUMP JUMPDEST PUSH1 0x40 MLOAD PUSH2 0x80C SWAP2 SWAP1 PUSH2 0x2C12 JUMP JUMPDEST PUSH1 0x40 MLOAD DUP1 SWAP2 SUB SWAP1 RETURN JUMPDEST CALLVALUE DUP1 ISZERO PUSH2 0x820 JUMPI PUSH0 DUP1 REVERT JUMPDEST POP PUSH2 0x829 PUSH2 0x198B JUMP JUMPDEST STOP JUMPDEST CALLVALUE DUP1 ISZERO PUSH2 0x836 JUMPI PUSH0 DUP1 REVERT JUMPDEST POP PUSH2 0x83F PUSH2 0x1A55 JUMP JUMPDEST PUSH1 0x40 MLOAD PUSH2 0x84C SWAP2 SWAP1 PUSH2 0x2C12 JUMP JUMPDEST PUSH1 0x40 MLOAD DUP1 SWAP2 SUB SWAP1 RETURN JUMPDEST CALLVALUE DUP1 ISZERO PUSH2 0x860 JUMPI PUSH0 DUP1 REVERT JUMPDEST POP PUSH2 0x869 PUSH2 0x1A5B JUMP JUMPDEST STOP JUMPDEST PUSH2 0x885 PUSH1 0x4 DUP1 CALLDATASIZE SUB DUP2 ADD SWAP1 PUSH2 0x880 SWAP2 SWAP1 PUSH2 0x2EF1 JUMP JUMPDEST PUSH2 0x1AA2 JUMP JUMPDEST STOP JUMPDEST CALLVALUE DUP1 ISZERO PUSH2 0x892 JUMPI PUSH0 DUP1 REVERT JUMPDEST POP PUSH2 0x89B PUSH2 0x1DF8 JUMP JUMPDEST STOP JUMPDEST CALLVALUE DUP1 ISZERO PUSH2 0x8A8 JUMPI PUSH0 DUP1 REVERT JUMPDEST POP PUSH2 0x8B1 PUSH2 0x1F69 JUMP JUMPDEST PUSH1 0x40 MLOAD PUSH2 0x8BE SWAP2 SWAP1 PUSH2 0x2973 JUMP JUMPDEST PUSH1 0x40 MLOAD DUP1 SWAP2 SUB SWAP1 RETURN JUMPDEST CALLVALUE DUP1 ISZERO PUSH2 0x8D2 JUMPI PUSH0 DUP1 REVERT JUMPDEST POP PUSH2 0x8DB PUSH2 0x1F6F JUMP JUMPDEST PUSH1 0x40 MLOAD PUSH2 0x8E8 SWAP2 SWAP1 PUSH2 0x2942 JUMP JUMPDEST PUSH1 0x40 MLOAD DUP1 SWAP2 SUB SWAP1 RETURN JUMPDEST PUSH2 0x8F9 PUSH2 0x1F82 JUMP JUMPDEST STOP JUMPDEST CALLVALUE DUP1 ISZERO PUSH2 0x906 JUMPI PUSH0 DUP1 REVERT JUMPDEST POP PUSH2 0x90F PUSH2 0x2011 JUMP JUMPDEST PUSH1 0x40 MLOAD PUSH2 0x91C SWAP2 SWAP1 PUSH2 0x2973 JUMP JUMPDEST PUSH1 0x40 MLOAD DUP1 SWAP2 SUB SWAP1 RETURN JUMPDEST CALLVALUE DUP1 ISZERO PUSH2 0x930 JUMPI PUSH0 DUP1 REVERT JUMPDEST POP PUSH2 0x94B PUSH1 0x4 DUP1 CALLDATASIZE SUB DUP2 ADD SWAP1 PUSH2 0x946 SWAP2 SWAP1 PUSH2 0x29EB JUMP JUMPDEST PUSH2 0x2017 JUMP JUMPDEST PUSH1 0x40 MLOAD PUSH2 0x958 SWAP2 SWAP1 PUSH2 0x2E77 JUMP JUMPDEST PUSH1 0x40 MLOAD DUP1 SWAP2 SUB SWAP1 RETURN JUMPDEST CALLVALUE DUP1 ISZERO PUSH2 0x96C JUMPI PUSH0 DUP1 REVERT JUMPDEST POP PUSH2 0x975 PUSH2 0x2050 JUMP JUMPDEST PUSH1 0x40 MLOAD PUSH2 0x982 SWAP2 SWAP1 PUSH2 0x2973 JUMP JUMPDEST PUSH1 0x40 MLOAD DUP1 SWAP2 SUB SWAP1 RETURN JUMPDEST CALLVALUE DUP1 ISZERO PUSH2 0x996 JUMPI PUSH0 DUP1 REVERT JUMPDEST POP PUSH2 0x99F PUSH2 0x2056 JUMP JUMPDEST PUSH1 0x40 MLOAD PUSH2 0x9AC SWAP2 SWAP1 PUSH2 0x2973 JUMP JUMPDEST PUSH1 0x40 MLOAD DUP1 SWAP2 SUB SWAP1 RETURN JUMPDEST CALLVALUE DUP1 ISZERO PUSH2 0x9C0 JUMPI PUSH0 DUP1 REVERT JUMPDEST POP PUSH2 0x9DB PUSH1 0x4 DUP1 CALLDATASIZE SUB DUP2 ADD SWAP1 PUSH2 0x9D6 SWAP2 SWAP1 PUSH2 0x2F9B JUMP JUMPDEST PUSH2 0x205B JUMP JUMPDEST STOP JUMPDEST CALLVALUE DUP1 ISZERO PUSH2 0x9E8 JUMPI PUSH0 DUP1 REVERT JUMPDEST POP PUSH2 0x9F1 PUSH2 0x20AD JUMP JUMPDEST PUSH1 0x40 MLOAD PUSH2 0x9FE SWAP2 SWAP1 PUSH2 0x2B26 JUMP JUMPDEST PUSH1 0x40 MLOAD DUP1 SWAP2 SUB SWAP1 RETURN JUMPDEST CALLVALUE DUP1 ISZERO PUSH2 0xA12 JUMPI PUSH0 DUP1 REVERT JUMPDEST POP PUSH2 0xA2D PUSH1 0x4 DUP1 CALLDATASIZE SUB DUP2 ADD SWAP1 PUSH2 0xA28 SWAP2 SWAP1 PUSH2 0x2C2B JUMP JUMPDEST PUSH2 0x20D2 JUMP JUMPDEST STOP JUMPDEST CALLVALUE DUP1 ISZERO PUSH2 0xA3A JUMPI PUSH0 DUP1 REVERT JUMPDEST POP PUSH2 0xA43 PUSH2 0x20F4 JUMP JUMPDEST PUSH1 0x40 MLOAD PUSH2 0xA50 SWAP2 SWAP1 PUSH2 0x2973 JUMP JUMPDEST PUSH1 0x40 MLOAD DUP1 SWAP2 SUB SWAP1 RETURN JUMPDEST CALLVALUE DUP1 ISZERO PUSH2 0xA64 JUMPI PUSH0 DUP1 REVERT JUMPDEST POP PUSH2 0xA7F PUSH1 0x4 DUP1 CALLDATASIZE SUB DUP2 ADD SWAP1 PUSH2 0xA7A SWAP2 SWAP1 PUSH2 0x29EB JUMP JUMPDEST PUSH2 0x20FA JUMP JUMPDEST STOP JUMPDEST CALLVALUE DUP1 ISZERO PUSH2 0xA8C JUMPI PUSH0 DUP1 REVERT JUMPDEST POP PUSH2 0xA95 PUSH2 0x21FD JUMP JUMPDEST PUSH1 0x40 MLOAD PUSH2 0xAA2 SWAP2 SWAP1 PUSH2 0x2C12 JUMP JUMPDEST PUSH1 0x40 MLOAD DUP1 SWAP2 SUB SWAP1 RETURN JUMPDEST CALLVALUE DUP1 ISZERO PUSH2 0xAB6 JUMPI PUSH0 DUP1 REVERT JUMPDEST POP PUSH2 0xAD1 PUSH1 0x4 DUP1 CALLDATASIZE SUB DUP2 ADD SWAP1 PUSH2 0xACC SWAP2 SWAP1 PUSH2 0x29EB JUMP JUMPDEST PUSH2 0x2221 JUMP JUMPDEST STOP JUMPDEST CALLVALUE DUP1 ISZERO PUSH2 0xADE JUMPI PUSH0 DUP1 REVERT JUMPDEST POP PUSH2 0xAE7 PUSH2 0x2324 JUMP JUMPDEST PUSH1 0x40 MLOAD PUSH2 0xAF4 SWAP2 SWAP1 PUSH2 0x2B26 JUMP JUMPDEST PUSH1 0x40 MLOAD DUP1 SWAP2 SUB SWAP1 RETURN JUMPDEST CALLVALUE DUP1 ISZERO PUSH2 0xB08 JUMPI PUSH0 DUP1 REVERT JUMPDEST POP PUSH2 0xB11 PUSH2 0x2349 JUMP JUMPDEST STOP JUMPDEST PUSH0 PUSH32 0x7965DB0B00000000000000000000000000000000000000000000000000000000 PUSH28 0xFFFFFFFFFFFFFFFFFFFFFFFFFFFFFFFFFFFFFFFFFFFFFFFFFFFFFFFF NOT AND DUP3 PUSH28 0xFFFFFFFFFFFFFFFFFFFFFFFFFFFFFFFFFFFFFFFFFFFFFFFFFFFFFFFF NOT AND EQ DUP1 PUSH2 0xB85 JUMPI POP PUSH2 0xB84 DUP3 PUSH2 0x2391 JUMP JUMPDEST JUMPDEST SWAP1 POP SWAP2 SWAP1 POP JUMP JUMPDEST PUSH1 0xE SLOAD DUP2 JUMP JUMPDEST PUSH2 0x2BC DUP2 JUMP JUMPDEST PUSH1 0x11 PUSH0 SWAP1 SLOAD SWAP1 PUSH2 0x100 EXP SWAP1 DIV PUSH2 0xFFFF AND DUP2 JUMP JUMPDEST PUSH1 0x2 PUSH1 0x20 MSTORE DUP1 PUSH0 MSTORE PUSH1 0x40 PUSH0 KECCAK256 PUSH0 SWAP2 POP SWAP1 POP DUP1 PUSH0 ADD PUSH0 SWAP1 SLOAD SWAP1 PUSH2 0x100 EXP SWAP1 DIV PUSH1 0xFF AND SWAP1 DUP1 PUSH1 0x1 ADD SLOAD SWAP1 DUP1 PUSH1 0x2 ADD PUSH0 SWAP1 SLOAD SWAP1 PUSH2 0x100 EXP SWAP1 DIV PUSH1 0xFF AND SWAP1 DUP1 PUSH1 0x5 ADD SLOAD SWAP1 POP DUP5 JUMP JUMPDEST PUSH1 0xA PUSH0 SWAP1 SLOAD SWAP1 PUSH2 0x100 EXP SWAP1 DIV PUSH20 0xFFFFFFFFFFFFFFFFFFFFFFFFFFFFFFFFFFFFFFFF AND DUP2 JUMP JUMPDEST PUSH0 PUSH1 0x7 PUSH0 DUP4 PUSH20 0xFFFFFFFFFFFFFFFFFFFFFFFFFFFFFFFFFFFFFFFF AND PUSH20 0xFFFFFFFFFFFFFFFFFFFFFFFFFFFFFFFFFFFFFFFF AND DUP2 MSTORE PUSH1 0x20 ADD SWAP1 DUP2 MSTORE PUSH1 0x20 ADD PUSH0 KECCAK256 SLOAD SWAP1 POP SWAP2 SWAP1 POP JUMP JUMPDEST PUSH0 PUSH1 0x5 PUSH0 DUP4 PUSH20 0xFFFFFFFFFFFFFFFFFFFFFFFFFFFFFFFFFFFFFFFF AND PUSH20 0xFFFFFFFFFFFFFFFFFFFFFFFFFFFFFFFFFFFFFFFF AND DUP2 MSTORE PUSH1 0x20 ADD SWAP1 DUP2 MSTORE PUSH1 0x20 ADD PUSH0 KECCAK256 SLOAD SWAP1 POP SWAP2 SWAP1 POP JUMP JUMPDEST PUSH1 0x64 DUP2 JUMP JUMPDEST PUSH0 PUSH1 0x1 PUSH0 DUP4 DUP2 MSTORE PUSH1 0x20 ADD SWAP1 DUP2 MSTORE PUSH1 0x20 ADD PUSH0 KECCAK256 PUSH1 0x1 ADD SLOAD SWAP1 POP SWAP2 SWAP1 POP JUMP JUMPDEST PUSH2 0xCCB DUP3 PUSH2 0xCA5 JUMP JUMPDEST PUSH2 0xCD4 DUP2 PUSH2 0x23FA JUMP JUMPDEST PUSH2 0xCDE DUP4 DUP4 PUSH2 0x240E JUMP JUMPDEST POP POP POP POP JUMP JUMPDEST PUSH2 0xCEC PUSH2 0x24F7 JUMP JUMPDEST PUSH20 0xFFFFFFFFFFFFFFFFFFFFFFFFFFFFFFFFFFFFFFFF AND DUP2 PUSH20 0xFFFFFFFFFFFFFFFFFFFFFFFFFFFFFFFFFFFFFFFF AND EQ PUSH2 0xD50 JUMPI PUSH1 0x40 MLOAD PUSH32 0x6697B23200000000000000000000000000000000000000000000000000000000 DUP2 MSTORE PUSH1 0x4 ADD PUSH1 0x40 MLOAD DUP1 SWAP2 SUB SWAP1 REVERT JUMPDEST PUSH2 0xD5A DUP3 DUP3 PUSH2 0x24FE JUMP JUMPDEST POP POP POP JUMP JUMPDEST PUSH32 0x65D7A28E3265B37A6474929F336521B332C1681B933F6CB9F3376673440D862A PUSH2 0xD89 DUP2 PUSH2 0x23FA JUMP JUMPDEST PUSH2 0xD91 PUSH2 0x25E8 JUMP JUMPDEST POP JUMP JUMPDEST PUSH32 0x2C96ED4E571FEC0CDC5B2AC10195FBD83EA322FE2010B5661FCB0CBEDAE86F70 PUSH2 0xDBE DUP2 PUSH2 0x23FA JUMP JUMPDEST PUSH2 0xDC6 PUSH2 0x2648 JUMP JUMPDEST PUSH1 0x1 ISZERO ISZERO PUSH1 0x11 PUSH1 0x2 SWAP1 SLOAD SWAP1 PUSH2 0x100 EXP SWAP1 DIV PUSH1 0xFF AND ISZERO ISZERO EQ PUSH2 0xDE5 JUMPI PUSH0 DUP1 REVERT JUMPDEST PUSH1 0x3 SLOAD DUP5 GT ISZERO PUSH2 0xE2A JUMPI PUSH1 0x40 MLOAD PUSH32 0x8C379A000000000000000000000000000000000000000000000000000000000 DUP2 MSTORE PUSH1 0x4 ADD PUSH2 0xE21 SWAP1 PUSH2 0x3020 JUMP JUMPDEST PUSH1 0x40 MLOAD DUP1 SWAP2 SUB SWAP1 REVERT JUMPDEST PUSH0 PUSH1 0x2 PUSH0 DUP7 DUP2 MSTORE PUSH1 0x20 ADD SWAP1 DUP2 MSTORE PUSH1 0x20 ADD PUSH0 KECCAK256 SWAP1 POP PUSH0 PUSH1 0x1 DUP2 GT ISZERO PUSH2 0xE51 JUMPI PUSH2 0xE50 PUSH2 0x2A16 JUMP JUMPDEST JUMPDEST DUP2 PUSH0 ADD PUSH0 SWAP1 SLOAD SWAP1 PUSH2 0x100 EXP SWAP1 DIV PUSH1 0xFF AND PUSH1 0x1 DUP2 GT ISZERO PUSH2 0xE73 JUMPI PUSH2 0xE72 PUSH2 0x2A16 JUMP JUMPDEST JUMPDEST EQ PUSH2 0xEB3 JUMPI PUSH1 0x40 MLOAD PUSH32 0x8C379A000000000000000000000000000000000000000000000000000000000 DUP2 MSTORE PUSH1 0x4 ADD PUSH2 0xEAA SWAP1 PUSH2 0x3088 JUMP JUMPDEST PUSH1 0x40 MLOAD DUP1 SWAP2 SUB SWAP1 REVERT JUMPDEST PUSH0 DUP1 JUMPDEST DUP3 PUSH1 0x5 ADD SLOAD DUP2 GT PUSH2 0x1551 JUMPI PUSH0 DUP4 PUSH1 0x4 ADD PUSH0 DUP4 DUP2 MSTORE PUSH1 0x20 ADD SWAP1 DUP2 MSTORE PUSH1 0x20 ADD PUSH0 KECCAK256 PUSH1 0x40 MLOAD DUP1 PUSH1 0x80 ADD PUSH1 0x40 MSTORE SWAP1 DUP2 PUSH0 DUP3 ADD PUSH0 SWAP1 SLOAD SWAP1 PUSH2 0x100 EXP SWAP1 DIV PUSH20 0xFFFFFFFFFFFFFFFFFFFFFFFFFFFFFFFFFFFFFFFF AND PUSH20 0xFFFFFFFFFFFFFFFFFFFFFFFFFFFFFFFFFFFFFFFF AND PUSH20 0xFFFFFFFFFFFFFFFFFFFFFFFFFFFFFFFFFFFFFFFF AND DUP2 MSTORE PUSH1 0x20 ADD PUSH1 0x1 DUP3 ADD DUP1 SLOAD DUP1 PUSH1 0x20 MUL PUSH1 0x20 ADD PUSH1 0x40 MLOAD SWAP1 DUP2 ADD PUSH1 0x40 MSTORE DUP1 SWAP3 SWAP2 SWAP1 DUP2 DUP2 MSTORE PUSH1 0x20 ADD DUP3 DUP1 SLOAD DUP1 ISZERO PUSH2 0xFA5 JUMPI PUSH1 0x20 MUL DUP3 ADD SWAP2 SWAP1 PUSH0 MSTORE PUSH1 0x20 PUSH0 KECCAK256 SWAP1 PUSH0 SWAP1 JUMPDEST DUP3 DUP3 SWAP1 SLOAD SWAP1 PUSH2 0x100 EXP SWAP1 DIV PUSH1 0xFF AND PUSH1 0xFF AND DUP2 MSTORE PUSH1 0x20 ADD SWAP1 PUSH1 0x1 ADD SWAP1 PUSH1 0x20 DUP3 PUSH0 ADD DIV SWAP3 DUP4 ADD SWAP3 PUSH1 0x1 SUB DUP3 MUL SWAP2 POP DUP1 DUP5 GT PUSH2 0xF6F JUMPI SWAP1 POP JUMPDEST POP POP POP POP POP DUP2 MSTORE PUSH1 0x20 ADD PUSH1 0x2 DUP3 ADD SLOAD DUP2 MSTORE PUSH1 0x20 ADD PUSH1 0x3 DUP3 ADD PUSH0 SWAP1 SLOAD SWAP1 PUSH2 0x100 EXP SWAP1 DIV PUSH1 0xFF AND PUSH1 0x5 DUP2 GT ISZERO PUSH2 0xFDC JUMPI PUSH2 0xFDB PUSH2 0x2A16 JUMP JUMPDEST JUMPDEST PUSH1 0x5 DUP2 GT ISZERO PUSH2 0xFEE JUMPI PUSH2 0xFED PUSH2 0x2A16 JUMP JUMPDEST JUMPDEST DUP2 MSTORE POP POP SWAP1 POP PUSH0 DUP1 PUSH1 0x5 DUP2 GT ISZERO PUSH2 0x1008 JUMPI PUSH2 0x1007 PUSH2 0x2A16 JUMP JUMPDEST JUMPDEST DUP3 PUSH1 0x60 ADD MLOAD PUSH1 0x5 DUP2 GT ISZERO PUSH2 0x101F JUMPI PUSH2 0x101E PUSH2 0x2A16 JUMP JUMPDEST JUMPDEST SUB PUSH2 0x10A2 JUMPI PUSH0 JUMPDEST DUP3 PUSH1 0x20 ADD MLOAD MLOAD DUP2 GT PUSH2 0x109C JUMPI DUP8 PUSH1 0xFF AND DUP4 PUSH1 0x20 ADD MLOAD DUP3 DUP2 MLOAD DUP2 LT PUSH2 0x104D JUMPI PUSH2 0x104C PUSH2 0x30A6 JUMP JUMPDEST JUMPDEST PUSH1 0x20 MUL PUSH1 0x20 ADD ADD MLOAD PUSH1 0xFF AND SUB PUSH2 0x1089 JUMPI PUSH1 0xA PUSH2 0x2BC DUP5 PUSH1 0x40 ADD MLOAD PUSH2 0x1071 SWAP2 SWAP1 PUSH2 0x3100 JUMP JUMPDEST PUSH2 0x107B SWAP2 SWAP1 PUSH2 0x316E JUMP JUMPDEST DUP3 PUSH2 0x1086 SWAP2 SWAP1 PUSH2 0x319E JUMP JUMPDEST SWAP2 POP JUMPDEST DUP1 DUP1 PUSH2 0x1094 SWAP1 PUSH2 0x31D1 JUMP JUMPDEST SWAP2 POP POP PUSH2 0x1026 JUMP JUMPDEST POP PUSH2 0x13A5 JUMP JUMPDEST PUSH1 0x1 PUSH1 0x5 DUP2 GT ISZERO PUSH2 0x10B6 JUMPI PUSH2 0x10B5 PUSH2 0x2A16 JUMP JUMPDEST JUMPDEST DUP3 PUSH1 0x60 ADD MLOAD PUSH1 0x5 DUP2 GT ISZERO PUSH2 0x10CD JUMPI PUSH2 0x10CC PUSH2 0x2A16 JUMP JUMPDEST JUMPDEST SUB PUSH2 0x115A JUMPI PUSH0 JUMPDEST DUP3 PUSH1 0x20 ADD MLOAD MLOAD DUP2 GT PUSH2 0x1154 JUMPI PUSH0 PUSH2 0x1109 DUP11 DUP6 PUSH1 0x20 ADD MLOAD DUP5 DUP2 MLOAD DUP2 LT PUSH2 0x10FC JUMPI PUSH2 0x10FB PUSH2 0x30A6 JUMP JUMPDEST JUMPDEST PUSH1 0x20 MUL PUSH1 0x20 ADD ADD MLOAD PUSH2 0x2689 JUMP JUMPDEST SWAP1 POP PUSH1 0xA PUSH1 0x22 DUP6 PUSH1 0x40 ADD MLOAD DUP4 PUSH2 0x111F SWAP2 SWAP1 PUSH2 0x3100 JUMP JUMPDEST PUSH2 0x1129 SWAP2 SWAP1 PUSH2 0x3100 JUMP JUMPDEST PUSH2 0x1133 SWAP2 SWAP1 PUSH2 0x316E JUMP JUMPDEST DUP4 PUSH2 0x113E SWAP2 SWAP1 PUSH2 0x319E JUMP JUMPDEST SWAP3 POP POP DUP1 DUP1 PUSH2 0x114C SWAP1 PUSH2 0x31D1 JUMP JUMPDEST SWAP2 POP POP PUSH2 0x10D4 JUMP JUMPDEST POP PUSH2 0x13A4 JUMP JUMPDEST PUSH1 0x2 PUSH1 0x5 DUP2 GT ISZERO PUSH2 0x116E JUMPI PUSH2 0x116D PUSH2 0x2A16 JUMP JUMPDEST JUMPDEST DUP3 PUSH1 0x60 ADD MLOAD PUSH1 0x5 DUP2 GT ISZERO PUSH2 0x1185 JUMPI PUSH2 0x1184 PUSH2 0x2A16 JUMP JUMPDEST JUMPDEST SUB PUSH2 0x1210 JUMPI PUSH0 JUMPDEST DUP3 PUSH1 0x20 ADD MLOAD MLOAD DUP2 GT PUSH2 0x120A JUMPI PUSH0 PUSH2 0x11C1 DUP11 DUP6 PUSH1 0x20 ADD MLOAD DUP5 DUP2 MLOAD DUP2 LT PUSH2 0x11B4 JUMPI PUSH2 0x11B3 PUSH2 0x30A6 JUMP JUMPDEST JUMPDEST PUSH1 0x20 MUL PUSH1 0x20 ADD ADD MLOAD PUSH2 0x2689 JUMP JUMPDEST SWAP1 POP PUSH1 0x2 DUP2 LT PUSH2 0x11F6 JUMPI PUSH1 0xA PUSH1 0x64 DUP6 PUSH1 0x40 ADD MLOAD PUSH2 0x11DE SWAP2 SWAP1 PUSH2 0x3100 JUMP JUMPDEST PUSH2 0x11E8 SWAP2 SWAP1 PUSH2 0x316E JUMP JUMPDEST DUP4 PUSH2 0x11F3 SWAP2 SWAP1 PUSH2 0x319E JUMP JUMPDEST SWAP3 POP JUMPDEST POP DUP1 DUP1 PUSH2 0x1202 SWAP1 PUSH2 0x31D1 JUMP JUMPDEST SWAP2 POP POP PUSH2 0x118C JUMP JUMPDEST POP PUSH2 0x13A3 JUMP JUMPDEST PUSH1 0x3 PUSH1 0x5 DUP2 GT ISZERO PUSH2 0x1224 JUMPI PUSH2 0x1223 PUSH2 0x2A16 JUMP JUMPDEST JUMPDEST DUP3 PUSH1 0x60 ADD MLOAD PUSH1 0x5 DUP2 GT ISZERO PUSH2 0x123B JUMPI PUSH2 0x123A PUSH2 0x2A16 JUMP JUMPDEST JUMPDEST SUB PUSH2 0x12C7 JUMPI PUSH0 JUMPDEST DUP3 PUSH1 0x20 ADD MLOAD MLOAD DUP2 GT PUSH2 0x12C1 JUMPI PUSH0 PUSH2 0x1277 DUP11 DUP6 PUSH1 0x20 ADD MLOAD DUP5 DUP2 MLOAD DUP2 LT PUSH2 0x126A JUMPI PUSH2 0x1269 PUSH2 0x30A6 JUMP JUMPDEST JUMPDEST PUSH1 0x20 MUL PUSH1 0x20 ADD ADD MLOAD PUSH2 0x2689 JUMP JUMPDEST SWAP1 POP PUSH1 0x3 DUP2 LT PUSH2 0x12AD JUMPI PUSH1 0xA PUSH2 0x12C DUP6 PUSH1 0x40 ADD MLOAD PUSH2 0x1295 SWAP2 SWAP1 PUSH2 0x3100 JUMP JUMPDEST PUSH2 0x129F SWAP2 SWAP1 PUSH2 0x316E JUMP JUMPDEST DUP4 PUSH2 0x12AA SWAP2 SWAP1 PUSH2 0x319E JUMP JUMPDEST SWAP3 POP JUMPDEST POP DUP1 DUP1 PUSH2 0x12B9 SWAP1 PUSH2 0x31D1 JUMP JUMPDEST SWAP2 POP POP PUSH2 0x1242 JUMP JUMPDEST POP PUSH2 0x13A2 JUMP JUMPDEST PUSH1 0x4 PUSH1 0x5 DUP2 GT ISZERO PUSH2 0x12DB JUMPI PUSH2 0x12DA PUSH2 0x2A16 JUMP JUMPDEST JUMPDEST DUP3 PUSH1 0x60 ADD MLOAD PUSH1 0x5 DUP2 GT ISZERO PUSH2 0x12F2 JUMPI PUSH2 0x12F1 PUSH2 0x2A16 JUMP JUMPDEST JUMPDEST SUB PUSH2 0x137E JUMPI PUSH0 JUMPDEST DUP3 PUSH1 0x20 ADD MLOAD MLOAD DUP2 GT PUSH2 0x1378 JUMPI PUSH0 PUSH2 0x132E DUP11 DUP6 PUSH1 0x20 ADD MLOAD DUP5 DUP2 MLOAD DUP2 LT PUSH2 0x1321 JUMPI PUSH2 0x1320 PUSH2 0x30A6 JUMP JUMPDEST JUMPDEST PUSH1 0x20 MUL PUSH1 0x20 ADD ADD MLOAD PUSH2 0x2689 JUMP JUMPDEST SWAP1 POP PUSH1 0x4 DUP2 LT PUSH2 0x1364 JUMPI PUSH1 0xA PUSH2 0x190 DUP6 PUSH1 0x40 ADD MLOAD PUSH2 0x134C SWAP2 SWAP1 PUSH2 0x3100 JUMP JUMPDEST PUSH2 0x1356 SWAP2 SWAP1 PUSH2 0x316E JUMP JUMPDEST DUP4 PUSH2 0x1361 SWAP2 SWAP1 PUSH2 0x319E JUMP JUMPDEST SWAP3 POP JUMPDEST POP DUP1 DUP1 PUSH2 0x1370 SWAP1 PUSH2 0x31D1 JUMP JUMPDEST SWAP2 POP POP PUSH2 0x12F9 JUMP JUMPDEST POP PUSH2 0x13A1 JUMP JUMPDEST DUP2 PUSH1 0x20 ADD MLOAD MLOAD DUP3 PUSH1 0x40 ADD MLOAD PUSH2 0x1393 SWAP2 SWAP1 PUSH2 0x319E JUMP JUMPDEST DUP5 PUSH2 0x139E SWAP2 SWAP1 PUSH2 0x319E JUMP JUMPDEST SWAP4 POP JUMPDEST JUMPDEST JUMPDEST JUMPDEST JUMPDEST PUSH0 PUSH1 0x5 PUSH0 DUP5 PUSH0 ADD MLOAD PUSH20 0xFFFFFFFFFFFFFFFFFFFFFFFFFFFFFFFFFFFFFFFF AND PUSH20 0xFFFFFFFFFFFFFFFFFFFFFFFFFFFFFFFFFFFFFFFF AND DUP2 MSTORE PUSH1 0x20 ADD SWAP1 DUP2 MSTORE PUSH1 0x20 ADD PUSH0 KECCAK256 SLOAD GT ISZERO PUSH2 0x1448 JUMPI DUP1 PUSH1 0x7 PUSH0 DUP5 PUSH0 ADD MLOAD PUSH20 0xFFFFFFFFFFFFFFFFFFFFFFFFFFFFFFFFFFFFFFFF AND PUSH20 0xFFFFFFFFFFFFFFFFFFFFFFFFFFFFFFFFFFFFFFFF AND DUP2 MSTORE PUSH1 0x20 ADD SWAP1 DUP2 MSTORE PUSH1 0x20 ADD PUSH0 KECCAK256 PUSH0 DUP3 DUP3 SLOAD PUSH2 0x143C SWAP2 SWAP1 PUSH2 0x319E JUMP JUMPDEST SWAP3 POP POP DUP2 SWAP1 SSTORE POP PUSH2 0x153C JUMP JUMPDEST DUP2 PUSH0 ADD MLOAD PUSH1 0x4 PUSH0 PUSH1 0x6 PUSH0 DUP2 SLOAD DUP1 SWAP3 SWAP2 SWAP1 PUSH2 0x1461 SWAP1 PUSH2 0x31D1 JUMP JUMPDEST SWAP2 SWAP1 POP SSTORE DUP2 MSTORE PUSH1 0x20 ADD SWAP1 DUP2 MSTORE PUSH1 0x20 ADD PUSH0 KECCAK256 PUSH0 PUSH2 0x100 EXP DUP2 SLOAD DUP2 PUSH20 0xFFFFFFFFFFFFFFFFFFFFFFFFFFFFFFFFFFFFFFFF MUL NOT AND SWAP1 DUP4 PUSH20 0xFFFFFFFFFFFFFFFFFFFFFFFFFFFFFFFFFFFFFFFF AND MUL OR SWAP1 SSTORE POP PUSH1 0x6 SLOAD PUSH1 0x5 PUSH0 DUP5 PUSH0 ADD MLOAD PUSH20 0xFFFFFFFFFFFFFFFFFFFFFFFFFFFFFFFFFFFFFFFF AND PUSH20 0xFFFFFFFFFFFFFFFFFFFFFFFFFFFFFFFFFFFFFFFF AND DUP2 MSTORE PUSH1 0x20 ADD SWAP1 DUP2 MSTORE PUSH1 0x20 ADD PUSH0 KECCAK256 DUP2 SWAP1 SSTORE POP DUP1 PUSH1 0x7 PUSH0 DUP5 PUSH0 ADD MLOAD PUSH20 0xFFFFFFFFFFFFFFFFFFFFFFFFFFFFFFFFFFFFFFFF AND PUSH20 0xFFFFFFFFFFFFFFFFFFFFFFFFFFFFFFFFFFFFFFFF AND DUP2 MSTORE PUSH1 0x20 ADD SWAP1 DUP2 MSTORE PUSH1 0x20 ADD PUSH0 KECCAK256 DUP2 SWAP1 SSTORE POP JUMPDEST POP POP DUP1 DUP1 PUSH2 0x1549 SWAP1 PUSH2 0x31D1 JUMP JUMPDEST SWAP2 POP POP PUSH2 0xEB6 JUMP JUMPDEST POP PUSH0 DUP2 GT ISZERO PUSH2 0x15FA JUMPI PUSH0 PUSH1 0xA PUSH1 0xB SLOAD DUP4 PUSH2 0x156B SWAP2 SWAP1 PUSH2 0x3100 JUMP JUMPDEST PUSH2 0x1575 SWAP2 SWAP1 PUSH2 0x316E JUMP JUMPDEST SWAP1 POP PUSH0 PUSH1 0xA PUSH1 0xC SLOAD DUP5 PUSH2 0x1588 SWAP2 SWAP1 PUSH2 0x3100 JUMP JUMPDEST PUSH2 0x1592 SWAP2 SWAP1 PUSH2 0x316E JUMP JUMPDEST SWAP1 POP PUSH0 DUP2 DUP4 DUP6 PUSH2 0x15A2 SWAP2 SWAP1 PUSH2 0x3218 JUMP JUMPDEST PUSH2 0x15AC SWAP2 SWAP1 PUSH2 0x3218 JUMP JUMPDEST SWAP1 POP DUP3 PUSH1 0xE PUSH0 DUP3 DUP3 SLOAD PUSH2 0x15BF SWAP2 SWAP1 PUSH2 0x319E JUMP JUMPDEST SWAP3 POP POP DUP2 SWAP1 SSTORE POP DUP2 PUSH1 0xF PUSH0 DUP3 DUP3 SLOAD PUSH2 0x15D7 SWAP2 SWAP1 PUSH2 0x319E JUMP JUMPDEST SWAP3 POP POP DUP2 SWAP1 SSTORE POP DUP1 PUSH1 0x10 PUSH0 DUP3 DUP3 SLOAD PUSH2 0x15EF SWAP2 SWAP1 PUSH2 0x319E JUMP JUMPDEST SWAP3 POP POP DUP2 SWAP1 SSTORE POP POP POP POP JUMPDEST PUSH1 0x1 DUP3 PUSH0 ADD PUSH0 PUSH2 0x100 EXP DUP2 SLOAD DUP2 PUSH1 0xFF MUL NOT AND SWAP1 DUP4 PUSH1 0x1 DUP2 GT ISZERO PUSH2 0x1620 JUMPI PUSH2 0x161F PUSH2 0x2A16 JUMP JUMPDEST JUMPDEST MUL OR SWAP1 SSTORE POP DUP4 DUP3 PUSH1 0x2 ADD PUSH0 PUSH2 0x100 EXP DUP2 SLOAD DUP2 PUSH1 0xFF MUL NOT AND SWAP1 DUP4 PUSH1 0xFF AND MUL OR SWAP1 SSTORE POP DUP5 DUP3 PUSH1 0x3 ADD SWAP1 DUP1 MLOAD SWAP1 PUSH1 0x20 ADD SWAP1 PUSH2 0x1659 SWAP3 SWAP2 SWAP1 PUSH2 0x27DA JUMP JUMPDEST POP PUSH0 PUSH1 0x2 PUSH0 PUSH1 0x3 PUSH0 DUP2 SLOAD DUP1 SWAP3 SWAP2 SWAP1 PUSH2 0x1670 SWAP1 PUSH2 0x31D1 JUMP JUMPDEST SWAP2 SWAP1 POP SSTORE DUP2 MSTORE PUSH1 0x20 ADD SWAP1 DUP2 MSTORE PUSH1 0x20 ADD PUSH0 KECCAK256 SWAP1 POP PUSH0 DUP2 PUSH0 ADD PUSH0 PUSH2 0x100 EXP DUP2 SLOAD DUP2 PUSH1 0xFF MUL NOT AND SWAP1 DUP4 PUSH1 0x1 DUP2 GT ISZERO PUSH2 0x16A8 JUMPI PUSH2 0x16A7 PUSH2 0x2A16 JUMP JUMPDEST JUMPDEST MUL OR SWAP1 SSTORE POP TIMESTAMP DUP2 PUSH1 0x1 ADD DUP2 SWAP1 SSTORE POP PUSH0 DUP2 PUSH1 0x5 ADD DUP2 SWAP1 SSTORE POP DUP5 PUSH1 0xFF AND DUP7 PUSH1 0x40 MLOAD PUSH2 0x16D1 SWAP2 SWAP1 PUSH2 0x32FC JUMP JUMPDEST PUSH1 0x40 MLOAD DUP1 SWAP2 SUB SWAP1 KECCAK256 DUP9 PUSH32 0xFF2518A763D5DF51512AA6A91D55E180D839636A19E21FD64715EFE393416616 PUSH1 0x40 MLOAD PUSH1 0x40 MLOAD DUP1 SWAP2 SUB SWAP1 LOG4 POP POP POP POP POP POP POP JUMP JUMPDEST PUSH2 0x12C DUP2 JUMP JUMPDEST PUSH1 0x5 PUSH1 0x20 MSTORE DUP1 PUSH0 MSTORE PUSH1 0x40 PUSH0 KECCAK256 PUSH0 SWAP2 POP SWAP1 POP SLOAD DUP2 JUMP JUMPDEST PUSH0 DUP1 PUSH0 SWAP1 SLOAD SWAP1 PUSH2 0x100 EXP SWAP1 DIV PUSH1 0xFF AND SWAP1 POP SWAP1 JUMP JUMPDEST PUSH0 PUSH1 0x2 PUSH0 DUP4 DUP2 MSTORE PUSH1 0x20 ADD SWAP1 DUP2 MSTORE PUSH1 0x20 ADD PUSH0 KECCAK256 PUSH0 ADD PUSH0 SWAP1 SLOAD SWAP1 PUSH2 0x100 EXP SWAP1 DIV PUSH1 0xFF AND SWAP1 POP SWAP2 SWAP1 POP JUMP JUMPDEST PUSH0 PUSH1 0x3 SLOAD SWAP1 POP SWAP1 JUMP JUMPDEST PUSH1 0xD SLOAD DUP2 JUMP JUMPDEST PUSH0 PUSH1 0x2 PUSH0 DUP4 DUP2 MSTORE PUSH1 0x20 ADD SWAP1 DUP2 MSTORE PUSH1 0x20 ADD PUSH0 KECCAK256 PUSH1 0x5 ADD SLOAD SWAP1 POP SWAP2 SWAP1 POP JUMP JUMPDEST PUSH32 0x65D7A28E3265B37A6474929F336521B332C1681B933F6CB9F3376673440D862A PUSH2 0x17BC DUP2 PUSH2 0x23FA JUMP JUMPDEST PUSH2 0x17C4 PUSH2 0x26E8 JUMP JUMPDEST POP JUMP JUMPDEST PUSH2 0x190 DUP2 JUMP JUMPDEST PUSH1 0x6 SLOAD DUP2 JUMP JUMPDEST PUSH0 PUSH1 0x1 PUSH0 DUP5 DUP2 MSTORE PUSH1 0x20 ADD SWAP1 DUP2 MSTORE PUSH1 0x20 ADD PUSH0 KECCAK256 PUSH0 ADD PUSH0 DUP4 PUSH20 0xFFFFFFFFFFFFFFFFFFFFFFFFFFFFFFFFFFFFFFFF AND PUSH20 0xFFFFFFFFFFFFFFFFFFFFFFFFFFFFFFFFFFFFFFFF AND DUP2 MSTORE PUSH1 0x20 ADD SWAP1 DUP2 MSTORE PUSH1 0x20 ADD PUSH0 KECCAK256 PUSH0 SWAP1 SLOAD SWAP1 PUSH2 0x100 EXP SWAP1 DIV PUSH1 0xFF AND SWAP1 POP SWAP3 SWAP2 POP POP JUMP JUMPDEST PUSH1 0x3 SLOAD DUP2 JUMP JUMPDEST PUSH1 0x4 PUSH1 0x20 MSTORE DUP1 PUSH0 MSTORE PUSH1 0x40 PUSH0 KECCAK256 PUSH0 SWAP2 POP SLOAD SWAP1 PUSH2 0x100 EXP SWAP1 DIV PUSH20 0xFFFFFFFFFFFFFFFFFFFFFFFFFFFFFFFFFFFFFFFF AND DUP2 JUMP JUMPDEST PUSH32 0x2C96ED4E571FEC0CDC5B2AC10195FBD83EA322FE2010B5661FCB0CBEDAE86F70 PUSH2 0x1897 DUP2 PUSH2 0x23FA JUMP JUMPDEST PUSH2 0x189F PUSH2 0x2648 JUMP JUMPDEST PUSH0 DUP4 LT ISZERO DUP1 ISZERO PUSH2 0x18AF JUMPI POP PUSH0 DUP3 LT ISZERO JUMPDEST PUSH2 0x18EE JUMPI PUSH1 0x40 MLOAD PUSH32 0x8C379A000000000000000000000000000000000000000000000000000000000 DUP2 MSTORE PUSH1 0x4 ADD PUSH2 0x18E5 SWAP1 PUSH2 0x335C JUMP JUMPDEST PUSH1 0x40 MLOAD DUP1 SWAP2 SUB SWAP1 REVERT JUMPDEST PUSH0 DUP3 DUP5 PUSH1 0xA PUSH2 0x18FD SWAP2 SWAP1 PUSH2 0x3218 JUMP JUMPDEST PUSH2 0x1907 SWAP2 SWAP1 PUSH2 0x3218 JUMP JUMPDEST SWAP1 POP PUSH0 DUP2 LT ISZERO PUSH2 0x194C JUMPI PUSH1 0x40 MLOAD PUSH32 0x8C379A000000000000000000000000000000000000000000000000000000000 DUP2 MSTORE PUSH1 0x4 ADD PUSH2 0x1943 SWAP1 PUSH2 0x33C4 JUMP JUMPDEST PUSH1 0x40 MLOAD DUP1 SWAP2 SUB SWAP1 REVERT JUMPDEST DUP4 PUSH1 0xB DUP2 SWAP1 SSTORE POP DUP3 PUSH1 0xC DUP2 SWAP1 SSTORE POP DUP1 PUSH1 0xD DUP2 SWAP1 SSTORE POP POP POP POP POP JUMP JUMPDEST PUSH32 0x2C96ED4E571FEC0CDC5B2AC10195FBD83EA322FE2010B5661FCB0CBEDAE86F70 DUP2 JUMP JUMPDEST PUSH32 0x2C96ED4E571FEC0CDC5B2AC10195FBD83EA322FE2010B5661FCB0CBEDAE86F70 PUSH2 0x19B5 DUP2 PUSH2 0x23FA JUMP JUMPDEST PUSH2 0x19BD PUSH2 0x2648 JUMP JUMPDEST PUSH0 PUSH1 0x2 PUSH0 PUSH1 0x3 PUSH0 DUP2 SLOAD DUP1 SWAP3 SWAP2 SWAP1 PUSH2 0x19D3 SWAP1 PUSH2 0x31D1 JUMP JUMPDEST SWAP2 SWAP1 POP SSTORE DUP2 MSTORE PUSH1 0x20 ADD SWAP1 DUP2 MSTORE PUSH1 0x20 ADD PUSH0 KECCAK256 SWAP1 POP PUSH0 DUP2 PUSH0 ADD PUSH0 PUSH2 0x100 EXP DUP2 SLOAD DUP2 PUSH1 0xFF MUL NOT AND SWAP1 DUP4 PUSH1 0x1 DUP2 GT ISZERO PUSH2 0x1A0B JUMPI PUSH2 0x1A0A PUSH2 0x2A16 JUMP JUMPDEST JUMPDEST MUL OR SWAP1 SSTORE POP TIMESTAMP DUP2 PUSH1 0x1 ADD DUP2 SWAP1 SSTORE POP PUSH0 DUP2 PUSH1 0x5 ADD DUP2 SWAP1 SSTORE POP PUSH1 0x3 SLOAD PUSH32 0xD5C78F62A4B60CF46593BAFFBD6EFF674F4307DD65F40959AC96BE8AC7B49F29 PUSH1 0x40 MLOAD PUSH1 0x40 MLOAD DUP1 SWAP2 SUB SWAP1 LOG2 POP POP JUMP JUMPDEST PUSH0 DUP1 SHL DUP2 JUMP JUMPDEST PUSH32 0x2C96ED4E571FEC0CDC5B2AC10195FBD83EA322FE2010B5661FCB0CBEDAE86F70 PUSH2 0x1A85 DUP2 PUSH2 0x23FA JUMP JUMPDEST PUSH0 PUSH1 0x11 PUSH1 0x2 PUSH2 0x100 EXP DUP2 SLOAD DUP2 PUSH1 0xFF MUL NOT AND SWAP1 DUP4 ISZERO ISZERO MUL OR SWAP1 SSTORE POP POP JUMP JUMPDEST PUSH2 0x1AAA PUSH2 0x2648 JUMP JUMPDEST PUSH0 ISZERO ISZERO PUSH1 0x11 PUSH1 0x2 SWAP1 SLOAD SWAP1 PUSH2 0x100 EXP SWAP1 DIV PUSH1 0xFF AND ISZERO ISZERO EQ PUSH2 0x1AC8 JUMPI PUSH0 DUP1 REVERT JUMPDEST PUSH0 CALLVALUE GT DUP1 ISZERO PUSH2 0x1AD6 JUMPI POP PUSH0 DUP2 GT JUMPDEST PUSH2 0x1B15 JUMPI PUSH1 0x40 MLOAD PUSH32 0x8C379A000000000000000000000000000000000000000000000000000000000 DUP2 MSTORE PUSH1 0x4 ADD PUSH2 0x1B0C SWAP1 PUSH2 0x3452 JUMP JUMPDEST PUSH1 0x40 MLOAD DUP1 SWAP2 SUB SWAP1 REVERT JUMPDEST CALLVALUE DUP2 DUP5 MLOAD PUSH2 0x1B23 SWAP2 SWAP1 PUSH2 0x3100 JUMP JUMPDEST EQ PUSH2 0x1B63 JUMPI PUSH1 0x40 MLOAD PUSH32 0x8C379A000000000000000000000000000000000000000000000000000000000 DUP2 MSTORE PUSH1 0x4 ADD PUSH2 0x1B5A SWAP1 PUSH2 0x34BA JUMP JUMPDEST PUSH1 0x40 MLOAD DUP1 SWAP2 SUB SWAP1 REVERT JUMPDEST PUSH1 0x11 PUSH0 SWAP1 SLOAD SWAP1 PUSH2 0x100 EXP SWAP1 DIV PUSH2 0xFFFF AND PUSH2 0xFFFF AND SELFBALANCE PUSH2 0x1B82 SWAP2 SWAP1 PUSH2 0x316E JUMP JUMPDEST CALLVALUE LT PUSH2 0x1BC3 JUMPI PUSH1 0x40 MLOAD PUSH32 0x8C379A000000000000000000000000000000000000000000000000000000000 DUP2 MSTORE PUSH1 0x4 ADD PUSH2 0x1BBA SWAP1 PUSH2 0x3548 JUMP JUMPDEST PUSH1 0x40 MLOAD DUP1 SWAP2 SUB SWAP1 REVERT JUMPDEST PUSH1 0x3 SLOAD DUP5 GT ISZERO PUSH2 0x1C08 JUMPI PUSH1 0x40 MLOAD PUSH32 0x8C379A000000000000000000000000000000000000000000000000000000000 DUP2 MSTORE PUSH1 0x4 ADD PUSH2 0x1BFF SWAP1 PUSH2 0x3020 JUMP JUMPDEST PUSH1 0x40 MLOAD DUP1 SWAP2 SUB SWAP1 REVERT JUMPDEST PUSH0 PUSH1 0x2 PUSH0 DUP7 DUP2 MSTORE PUSH1 0x20 ADD SWAP1 DUP2 MSTORE PUSH1 0x20 ADD PUSH0 KECCAK256 SWAP1 POP PUSH0 PUSH1 0x1 DUP2 GT ISZERO PUSH2 0x1C2F JUMPI PUSH2 0x1C2E PUSH2 0x2A16 JUMP JUMPDEST JUMPDEST DUP2 PUSH0 ADD PUSH0 SWAP1 SLOAD SWAP1 PUSH2 0x100 EXP SWAP1 DIV PUSH1 0xFF AND PUSH1 0x1 DUP2 GT ISZERO PUSH2 0x1C51 JUMPI PUSH2 0x1C50 PUSH2 0x2A16 JUMP JUMPDEST JUMPDEST EQ PUSH2 0x1C91 JUMPI PUSH1 0x40 MLOAD PUSH32 0x8C379A000000000000000000000000000000000000000000000000000000000 DUP2 MSTORE PUSH1 0x4 ADD PUSH2 0x1C88 SWAP1 PUSH2 0x3088 JUMP JUMPDEST PUSH1 0x40 MLOAD DUP1 SWAP2 SUB SWAP1 REVERT JUMPDEST PUSH1 0x40 MLOAD DUP1 PUSH1 0x80 ADD PUSH1 0x40 MSTORE DUP1 CALLER PUSH20 0xFFFFFFFFFFFFFFFFFFFFFFFFFFFFFFFFFFFFFFFF AND DUP2 MSTORE PUSH1 0x20 ADD DUP6 DUP2 MSTORE PUSH1 0x20 ADD DUP4 DUP2 MSTORE PUSH1 0x20 ADD DUP5 PUSH1 0x5 DUP2 GT ISZERO PUSH2 0x1CD7 JUMPI PUSH2 0x1CD6 PUSH2 0x2A16 JUMP JUMPDEST JUMPDEST DUP2 MSTORE POP DUP2 PUSH1 0x4 ADD PUSH0 DUP4 PUSH1 0x5 ADD PUSH0 DUP2 SLOAD DUP1 SWAP3 SWAP2 SWAP1 PUSH2 0x1CF3 SWAP1 PUSH2 0x31D1 JUMP JUMPDEST SWAP2 SWAP1 POP SSTORE DUP2 MSTORE PUSH1 0x20 ADD SWAP1 DUP2 MSTORE PUSH1 0x20 ADD PUSH0 KECCAK256 PUSH0 DUP3 ADD MLOAD DUP2 PUSH0 ADD PUSH0 PUSH2 0x100 EXP DUP2 SLOAD DUP2 PUSH20 0xFFFFFFFFFFFFFFFFFFFFFFFFFFFFFFFFFFFFFFFF MUL NOT AND SWAP1 DUP4 PUSH20 0xFFFFFFFFFFFFFFFFFFFFFFFFFFFFFFFFFFFFFFFF AND MUL OR SWAP1 SSTORE POP PUSH1 0x20 DUP3 ADD MLOAD DUP2 PUSH1 0x1 ADD SWAP1 DUP1 MLOAD SWAP1 PUSH1 0x20 ADD SWAP1 PUSH2 0x1D64 SWAP3 SWAP2 SWAP1 PUSH2 0x27DA JUMP JUMPDEST POP PUSH1 0x40 DUP3 ADD MLOAD DUP2 PUSH1 0x2 ADD SSTORE PUSH1 0x60 DUP3 ADD MLOAD DUP2 PUSH1 0x3 ADD PUSH0 PUSH2 0x100 EXP DUP2 SLOAD DUP2 PUSH1 0xFF MUL NOT AND SWAP1 DUP4 PUSH1 0x5 DUP2 GT ISZERO PUSH2 0x1D99 JUMPI PUSH2 0x1D98 PUSH2 0x2A16 JUMP JUMPDEST JUMPDEST MUL OR SWAP1 SSTORE POP SWAP1 POP POP DUP4 PUSH1 0x40 MLOAD PUSH2 0x1DAF SWAP2 SWAP1 PUSH2 0x32FC JUMP JUMPDEST PUSH1 0x40 MLOAD DUP1 SWAP2 SUB SWAP1 KECCAK256 DUP6 PUSH32 0xF551DF8D6E0FE436EBE2FF7D859D7A4138446B61755DA071196FAA6DDC0D3029 DUP6 DUP6 PUSH1 0x40 MLOAD PUSH2 0x1DE9 SWAP3 SWAP2 SWAP1 PUSH2 0x35AC JUMP JUMPDEST PUSH1 0x40 MLOAD DUP1 SWAP2 SUB SWAP1 LOG3 POP POP POP POP POP JUMP JUMPDEST PUSH2 0x1E00 PUSH2 0x2648 JUMP JUMPDEST PUSH0 PUSH1 0x7 PUSH0 CALLER PUSH20 0xFFFFFFFFFFFFFFFFFFFFFFFFFFFFFFFFFFFFFFFF AND PUSH20 0xFFFFFFFFFFFFFFFFFFFFFFFFFFFFFFFFFFFFFFFF AND DUP2 MSTORE PUSH1 0x20 ADD SWAP1 DUP2 MSTORE PUSH1 0x20 ADD PUSH0 KECCAK256 SLOAD GT PUSH2 0x1E7F JUMPI PUSH1 0x40 MLOAD PUSH32 0x8C379A000000000000000000000000000000000000000000000000000000000 DUP2 MSTORE PUSH1 0x4 ADD PUSH2 0x1E76 SWAP1 PUSH2 0x3643 JUMP JUMPDEST PUSH1 0x40 MLOAD DUP1 SWAP2 SUB SWAP1 REVERT JUMPDEST PUSH0 PUSH1 0xE SLOAD SWAP1 POP DUP1 PUSH1 0x7 PUSH0 CALLER PUSH20 0xFFFFFFFFFFFFFFFFFFFFFFFFFFFFFFFFFFFFFFFF AND PUSH20 0xFFFFFFFFFFFFFFFFFFFFFFFFFFFFFFFFFFFFFFFF AND DUP2 MSTORE PUSH1 0x20 ADD SWAP1 DUP2 MSTORE PUSH1 0x20 ADD PUSH0 KECCAK256 SLOAD GT PUSH2 0x1F0A JUMPI PUSH1 0x7 PUSH0 CALLER PUSH20 0xFFFFFFFFFFFFFFFFFFFFFFFFFFFFFFFFFFFFFFFF AND PUSH20 0xFFFFFFFFFFFFFFFFFFFFFFFFFFFFFFFFFFFFFFFF AND DUP2 MSTORE PUSH1 0x20 ADD SWAP1 DUP2 MSTORE PUSH1 0x20 ADD PUSH0 KECCAK256 SLOAD SWAP1 POP JUMPDEST CALLER PUSH20 0xFFFFFFFFFFFFFFFFFFFFFFFFFFFFFFFFFFFFFFFF AND PUSH2 0x8FC DUP3 SWAP1 DUP2 ISZERO MUL SWAP1 PUSH1 0x40 MLOAD PUSH0 PUSH1 0x40 MLOAD DUP1 DUP4 SUB DUP2 DUP6 DUP9 DUP9 CALL SWAP4 POP POP POP POP ISZERO DUP1 ISZERO PUSH2 0x1F4D JUMPI RETURNDATASIZE PUSH0 DUP1 RETURNDATACOPY RETURNDATASIZE PUSH0 REVERT JUMPDEST POP DUP1 PUSH1 0xE PUSH0 DUP3 DUP3 SLOAD PUSH2 0x1F5F SWAP2 SWAP1 PUSH2 0x3218 JUMP JUMPDEST SWAP3 POP POP DUP2 SWAP1 SSTORE POP POP JUMP JUMPDEST PUSH1 0x10 SLOAD DUP2 JUMP JUMPDEST PUSH1 0x11 PUSH1 0x2 SWAP1 SLOAD SWAP1 PUSH2 0x100 EXP SWAP1 DIV PUSH1 0xFF AND DUP2 JUMP JUMPDEST PUSH32 0x2C96ED4E571FEC0CDC5B2AC10195FBD83EA322FE2010B5661FCB0CBEDAE86F70 PUSH2 0x1FAC DUP2 PUSH2 0x23FA JUMP JUMPDEST PUSH2 0x1FB4 PUSH2 0x2648 JUMP JUMPDEST PUSH0 CALLVALUE GT PUSH2 0x1FF6 JUMPI PUSH1 0x40 MLOAD PUSH32 0x8C379A000000000000000000000000000000000000000000000000000000000 DUP2 MSTORE PUSH1 0x4 ADD PUSH2 0x1FED SWAP1 PUSH2 0x36AB JUMP JUMPDEST PUSH1 0x40 MLOAD DUP1 SWAP2 SUB SWAP1 REVERT JUMPDEST CALLVALUE PUSH1 0xE PUSH0 DUP3 DUP3 SLOAD PUSH2 0x2007 SWAP2 SWAP1 PUSH2 0x319E JUMP JUMPDEST SWAP3 POP POP DUP2 SWAP1 SSTORE POP POP JUMP JUMPDEST PUSH1 0xF SLOAD DUP2 JUMP JUMPDEST PUSH0 PUSH1 0x4 PUSH0 DUP4 DUP2 MSTORE PUSH1 0x20 ADD SWAP1 DUP2 MSTORE PUSH1 0x20 ADD PUSH0 KECCAK256 PUSH0 SWAP1 SLOAD SWAP1 PUSH2 0x100 EXP SWAP1 DIV PUSH20 0xFFFFFFFFFFFFFFFFFFFFFFFFFFFFFFFFFFFFFFFF AND SWAP1 POP SWAP2 SWAP1 POP JUMP JUMPDEST PUSH1 0xB SLOAD DUP2 JUMP JUMPDEST PUSH1 0x22 DUP2 JUMP JUMPDEST PUSH32 0x2C96ED4E571FEC0CDC5B2AC10195FBD83EA322FE2010B5661FCB0CBEDAE86F70 PUSH2 0x2085 DUP2 PUSH2 0x23FA JUMP JUMPDEST PUSH2 0x208D PUSH2 0x2648 JUMP JUMPDEST DUP2 PUSH1 0x11 PUSH0 PUSH2 0x100 EXP DUP2 SLOAD DUP2 PUSH2 0xFFFF MUL NOT AND SWAP1 DUP4 PUSH2 0xFFFF AND MUL OR SWAP1 SSTORE POP POP POP JUMP JUMPDEST PUSH1 0x8 PUSH0 SWAP1 SLOAD SWAP1 PUSH2 0x100 EXP SWAP1 DIV PUSH20 0xFFFFFFFFFFFFFFFFFFFFFFFFFFFFFFFFFFFFFFFF AND DUP2 JUMP JUMPDEST PUSH2 0x20DB DUP3 PUSH2 0xCA5 JUMP JUMPDEST PUSH2 0x20E4 DUP2 PUSH2 0x23FA JUMP JUMPDEST PUSH2 0x20EE DUP4 DUP4 PUSH2 0x24FE JUMP JUMPDEST POP POP POP POP JUMP JUMPDEST PUSH1 0xC SLOAD DUP2 JUMP JUMPDEST PUSH32 0x2C96ED4E571FEC0CDC5B2AC10195FBD83EA322FE2010B5661FCB0CBEDAE86F70 PUSH2 0x2124 DUP2 PUSH2 0x23FA JUMP JUMPDEST PUSH2 0x212C PUSH2 0x2648 JUMP JUMPDEST PUSH0 DUP3 GT DUP1 ISZERO PUSH2 0x213D JUMPI POP PUSH1 0xF SLOAD DUP3 GT ISZERO JUMPDEST PUSH2 0x217C JUMPI PUSH1 0x40 MLOAD PUSH32 0x8C379A000000000000000000000000000000000000000000000000000000000 DUP2 MSTORE PUSH1 0x4 ADD PUSH2 0x2173 SWAP1 PUSH2 0x3739 JUMP JUMPDEST PUSH1 0x40 MLOAD DUP1 SWAP2 SUB SWAP1 REVERT JUMPDEST PUSH1 0x9 PUSH0 SWAP1 SLOAD SWAP1 PUSH2 0x100 EXP SWAP1 DIV PUSH20 0xFFFFFFFFFFFFFFFFFFFFFFFFFFFFFFFFFFFFFFFF AND PUSH20 0xFFFFFFFFFFFFFFFFFFFFFFFFFFFFFFFFFFFFFFFF AND PUSH2 0x8FC DUP4 SWAP1 DUP2 ISZERO MUL SWAP1 PUSH1 0x40 MLOAD PUSH0 PUSH1 0x40 MLOAD DUP1 DUP4 SUB DUP2 DUP6 DUP9 DUP9 CALL SWAP4 POP POP POP POP ISZERO DUP1 ISZERO PUSH2 0x21E0 JUMPI RETURNDATASIZE PUSH0 DUP1 RETURNDATACOPY RETURNDATASIZE PUSH0 REVERT JUMPDEST POP DUP2 PUSH1 0xF PUSH0 DUP3 DUP3 SLOAD PUSH2 0x21F2 SWAP2 SWAP1 PUSH2 0x3218 JUMP JUMPDEST SWAP3 POP POP DUP2 SWAP1 SSTORE POP POP POP JUMP JUMPDEST PUSH32 0x65D7A28E3265B37A6474929F336521B332C1681B933F6CB9F3376673440D862A DUP2 JUMP JUMPDEST PUSH32 0x2C96ED4E571FEC0CDC5B2AC10195FBD83EA322FE2010B5661FCB0CBEDAE86F70 PUSH2 0x224B DUP2 PUSH2 0x23FA JUMP JUMPDEST PUSH2 0x2253 PUSH2 0x2648 JUMP JUMPDEST PUSH0 DUP3 GT DUP1 ISZERO PUSH2 0x2264 JUMPI POP PUSH1 0x10 SLOAD DUP3 GT ISZERO JUMPDEST PUSH2 0x22A3 JUMPI PUSH1 0x40 MLOAD PUSH32 0x8C379A000000000000000000000000000000000000000000000000000000000 DUP2 MSTORE PUSH1 0x4 ADD PUSH2 0x229A SWAP1 PUSH2 0x3739 JUMP JUMPDEST PUSH1 0x40 MLOAD DUP1 SWAP2 SUB SWAP1 REVERT JUMPDEST PUSH1 0xA PUSH0 SWAP1 SLOAD SWAP1 PUSH2 0x100 EXP SWAP1 DIV PUSH20 0xFFFFFFFFFFFFFFFFFFFFFFFFFFFFFFFFFFFFFFFF AND PUSH20 0xFFFFFFFFFFFFFFFFFFFFFFFFFFFFFFFFFFFFFFFF AND PUSH2 0x8FC DUP4 SWAP1 DUP2 ISZERO MUL SWAP1 PUSH1 0x40 MLOAD PUSH0 PUSH1 0x40 MLOAD DUP1 DUP4 SUB DUP2 DUP6 DUP9 DUP9 CALL SWAP4 POP POP POP POP ISZERO DUP1 ISZERO PUSH2 0x2307 JUMPI RETURNDATASIZE PUSH0 DUP1 RETURNDATACOPY RETURNDATASIZE PUSH0 REVERT JUMPDEST POP DUP2 PUSH1 0x10 PUSH0 DUP3 DUP3 SLOAD PUSH2 0x2319 SWAP2 SWAP1 PUSH2 0x3218 JUMP JUMPDEST SWAP3 POP POP DUP2 SWAP1 SSTORE POP POP POP JUMP JUMPDEST PUSH1 0x9 PUSH0 SWAP1 SLOAD SWAP1 PUSH2 0x100 EXP SWAP1 DIV PUSH20 0xFFFFFFFFFFFFFFFFFFFFFFFFFFFFFFFFFFFFFFFF AND DUP2 JUMP JUMPDEST PUSH32 0x2C96ED4E571FEC0CDC5B2AC10195FBD83EA322FE2010B5661FCB0CBEDAE86F70 PUSH2 0x2373 DUP2 PUSH2 0x23FA JUMP JUMPDEST PUSH1 0x1 PUSH1 0x11 PUSH1 0x2 PUSH2 0x100 EXP DUP2 SLOAD DUP2 PUSH1 0xFF MUL NOT AND SWAP1 DUP4 ISZERO ISZERO MUL OR SWAP1 SSTORE POP POP JUMP JUMPDEST PUSH0 PUSH32 0x1FFC9A700000000000000000000000000000000000000000000000000000000 PUSH28 0xFFFFFFFFFFFFFFFFFFFFFFFFFFFFFFFFFFFFFFFFFFFFFFFFFFFFFFFF NOT AND DUP3 PUSH28 0xFFFFFFFFFFFFFFFFFFFFFFFFFFFFFFFFFFFFFFFFFFFFFFFFFFFFFFFF NOT AND EQ SWAP1 POP SWAP2 SWAP1 POP JUMP JUMPDEST PUSH2 0x240B DUP2 PUSH2 0x2406 PUSH2 0x24F7 JUMP JUMPDEST PUSH2 0x2749 JUMP JUMPDEST POP JUMP JUMPDEST PUSH0 PUSH2 0x2419 DUP4 DUP4 PUSH2 0x17D3 JUMP JUMPDEST PUSH2 0x24ED JUMPI PUSH1 0x1 DUP1 PUSH0 DUP6 DUP2 MSTORE PUSH1 0x20 ADD SWAP1 DUP2 MSTORE PUSH1 0x20 ADD PUSH0 KECCAK256 PUSH0 ADD PUSH0 DUP5 PUSH20 0xFFFFFFFFFFFFFFFFFFFFFFFFFFFFFFFFFFFFFFFF AND PUSH20 0xFFFFFFFFFFFFFFFFFFFFFFFFFFFFFFFFFFFFFFFF AND DUP2 MSTORE PUSH1 0x20 ADD SWAP1 DUP2 MSTORE PUSH1 0x20 ADD PUSH0 KECCAK256 PUSH0 PUSH2 0x100 EXP DUP2 SLOAD DUP2 PUSH1 0xFF MUL NOT AND SWAP1 DUP4 ISZERO ISZERO MUL OR SWAP1 SSTORE POP PUSH2 0x248A PUSH2 0x24F7 JUMP JUMPDEST PUSH20 0xFFFFFFFFFFFFFFFFFFFFFFFFFFFFFFFFFFFFFFFF AND DUP3 PUSH20 0xFFFFFFFFFFFFFFFFFFFFFFFFFFFFFFFFFFFFFFFF AND DUP5 PUSH32 0x2F8788117E7EFF1D82E926EC794901D17C78024A50270940304540A733656F0D PUSH1 0x40 MLOAD PUSH1 0x40 MLOAD DUP1 SWAP2 SUB SWAP1 LOG4 PUSH1 0x1 SWAP1 POP PUSH2 0x24F1 JUMP JUMPDEST PUSH0 SWAP1 POP JUMPDEST SWAP3 SWAP2 POP POP JUMP JUMPDEST PUSH0 CALLER SWAP1 POP SWAP1 JUMP JUMPDEST PUSH0 PUSH2 0x2509 DUP4 DUP4 PUSH2 0x17D3 JUMP JUMPDEST ISZERO PUSH2 0x25DE JUMPI PUSH0 PUSH1 0x1 PUSH0 DUP6 DUP2 MSTORE PUSH1 0x20 ADD SWAP1 DUP2 MSTORE PUSH1 0x20 ADD PUSH0 KECCAK256 PUSH0 ADD PUSH0 DUP5 PUSH20 0xFFFFFFFFFFFFFFFFFFFFFFFFFFFFFFFFFFFFFFFF AND PUSH20 0xFFFFFFFFFFFFFFFFFFFFFFFFFFFFFFFFFFFFFFFF AND DUP2 MSTORE PUSH1 0x20 ADD SWAP1 DUP2 MSTORE PUSH1 0x20 ADD PUSH0 KECCAK256 PUSH0 PUSH2 0x100 EXP DUP2 SLOAD DUP2 PUSH1 0xFF MUL NOT AND SWAP1 DUP4 ISZERO ISZERO MUL OR SWAP1 SSTORE POP PUSH2 0x257B PUSH2 0x24F7 JUMP JUMPDEST PUSH20 0xFFFFFFFFFFFFFFFFFFFFFFFFFFFFFFFFFFFFFFFF AND DUP3 PUSH20 0xFFFFFFFFFFFFFFFFFFFFFFFFFFFFFFFFFFFFFFFF AND DUP5 PUSH32 0xF6391F5C32D9C69D2A47EA670B442974B53935D1EDC7FD64EB21E047A839171B PUSH1 0x40 MLOAD PUSH1 0x40 MLOAD DUP1 SWAP2 SUB SWAP1 LOG4 PUSH1 0x1 SWAP1 POP PUSH2 0x25E2 JUMP JUMPDEST PUSH0 SWAP1 POP JUMPDEST SWAP3 SWAP2 POP POP JUMP JUMPDEST PUSH2 0x25F0 PUSH2 0x279A JUMP JUMPDEST PUSH0 DUP1 PUSH0 PUSH2 0x100 EXP DUP2 SLOAD DUP2 PUSH1 0xFF MUL NOT AND SWAP1 DUP4 ISZERO ISZERO MUL OR SWAP1 SSTORE POP PUSH32 0x5DB9EE0A495BF2E6FF9C91A7834C1BA4FDD244A5E8AA4E537BD38AEAE4B073AA PUSH2 0x2631 PUSH2 0x24F7 JUMP JUMPDEST PUSH1 0x40 MLOAD PUSH2 0x263E SWAP2 SWAP1 PUSH2 0x2E77 JUMP JUMPDEST PUSH1 0x40 MLOAD DUP1 SWAP2 SUB SWAP1 LOG1 JUMP JUMPDEST PUSH2 0x2650 PUSH2 0x172A JUMP JUMPDEST ISZERO PUSH2 0x2687 JUMPI PUSH1 0x40 MLOAD PUSH32 0xD93C066500000000000000000000000000000000000000000000000000000000 DUP2 MSTORE PUSH1 0x4 ADD PUSH1 0x40 MLOAD DUP1 SWAP2 SUB SWAP1 REVERT JUMPDEST JUMP JUMPDEST PUSH0 DUP1 PUSH0 SWAP1 POP JUMPDEST DUP4 MLOAD DUP2 LT ISZERO PUSH2 0x26E1 JUMPI DUP3 PUSH1 0xFF AND DUP5 DUP3 DUP2 MLOAD DUP2 LT PUSH2 0x26AF JUMPI PUSH2 0x26AE PUSH2 0x30A6 JUMP JUMPDEST JUMPDEST PUSH1 0x20 MUL PUSH1 0x20 ADD ADD MLOAD PUSH1 0xFF AND SUB PUSH2 0x26CE JUMPI DUP2 DUP1 PUSH2 0x26CA SWAP1 PUSH2 0x31D1 JUMP JUMPDEST SWAP3 POP POP JUMPDEST DUP1 DUP1 PUSH2 0x26D9 SWAP1 PUSH2 0x31D1 JUMP JUMPDEST SWAP2 POP POP PUSH2 0x268F JUMP JUMPDEST POP SWAP3 SWAP2 POP POP JUMP JUMPDEST PUSH2 0x26F0 PUSH2 0x2648 JUMP JUMPDEST PUSH1 0x1 PUSH0 DUP1 PUSH2 0x100 EXP DUP2 SLOAD DUP2 PUSH1 0xFF MUL NOT AND SWAP1 DUP4 ISZERO ISZERO MUL OR SWAP1 SSTORE POP PUSH32 0x62E78CEA01BEE320CD4E420270B5EA74000D11B0C9F74754EBDBFC544B05A258 PUSH2 0x2732 PUSH2 0x24F7 JUMP JUMPDEST PUSH1 0x40 MLOAD PUSH2 0x273F SWAP2 SWAP1 PUSH2 0x2E77 JUMP JUMPDEST PUSH1 0x40 MLOAD DUP1 SWAP2 SUB SWAP1 LOG1 JUMP JUMPDEST PUSH2 0x2753 DUP3 DUP3 PUSH2 0x17D3 JUMP JUMPDEST PUSH2 0x2796 JUMPI DUP1 DUP3 PUSH1 0x40 MLOAD PUSH32 0xE2517D3F00000000000000000000000000000000000000000000000000000000 DUP2 MSTORE PUSH1 0x4 ADD PUSH2 0x278D SWAP3 SWAP2 SWAP1 PUSH2 0x3757 JUMP JUMPDEST PUSH1 0x40 MLOAD DUP1 SWAP2 SUB SWAP1 REVERT JUMPDEST POP POP JUMP JUMPDEST PUSH2 0x27A2 PUSH2 0x172A JUMP JUMPDEST PUSH2 0x27D8 JUMPI PUSH1 0x40 MLOAD PUSH32 0x8DFC202B00000000000000000000000000000000000000000000000000000000 DUP2 MSTORE PUSH1 0x4 ADD PUSH1 0x40 MLOAD DUP1 SWAP2 SUB SWAP1 REVERT JUMPDEST JUMP JUMPDEST DUP3 DUP1 SLOAD DUP3 DUP3 SSTORE SWAP1 PUSH0 MSTORE PUSH1 0x20 PUSH0 KECCAK256 SWAP1 PUSH1 0x1F ADD PUSH1 0x20 SWAP1 DIV DUP2 ADD SWAP3 DUP3 ISZERO PUSH2 0x286B JUMPI SWAP2 PUSH1 0x20 MUL DUP3 ADD PUSH0 JUMPDEST DUP4 DUP3 GT ISZERO PUSH2 0x283D JUMPI DUP4 MLOAD DUP4 DUP3 PUSH2 0x100 EXP DUP2 SLOAD DUP2 PUSH1 0xFF MUL NOT AND SWAP1 DUP4 PUSH1 0xFF AND MUL OR SWAP1 SSTORE POP SWAP3 PUSH1 0x20 ADD SWAP3 PUSH1 0x1 ADD PUSH1 0x20 DUP2 PUSH0 ADD DIV SWAP3 DUP4 ADD SWAP3 PUSH1 0x1 SUB MUL PUSH2 0x2800 JUMP JUMPDEST DUP1 ISZERO PUSH2 0x2869 JUMPI DUP3 DUP2 PUSH2 0x100 EXP DUP2 SLOAD SWAP1 PUSH1 0xFF MUL NOT AND SWAP1 SSTORE PUSH1 0x1 ADD PUSH1 0x20 DUP2 PUSH0 ADD DIV SWAP3 DUP4 ADD SWAP3 PUSH1 0x1 SUB MUL PUSH2 0x283D JUMP JUMPDEST POP JUMPDEST POP SWAP1 POP PUSH2 0x2878 SWAP2 SWAP1 PUSH2 0x287C JUMP JUMPDEST POP SWAP1 JUMP JUMPDEST JUMPDEST DUP1 DUP3 GT ISZERO PUSH2 0x2893 JUMPI PUSH0 DUP2 PUSH0 SWAP1 SSTORE POP PUSH1 0x1 ADD PUSH2 0x287D JUMP JUMPDEST POP SWAP1 JUMP JUMPDEST PUSH0 PUSH1 0x40 MLOAD SWAP1 POP SWAP1 JUMP JUMPDEST PUSH0 DUP1 REVERT JUMPDEST PUSH0 DUP1 REVERT JUMPDEST PUSH0 PUSH32 0xFFFFFFFF00000000000000000000000000000000000000000000000000000000 DUP3 AND SWAP1 POP SWAP2 SWAP1 POP JUMP JUMPDEST PUSH2 0x28DC DUP2 PUSH2 0x28A8 JUMP JUMPDEST DUP2 EQ PUSH2 0x28E6 JUMPI PUSH0 DUP1 REVERT JUMPDEST POP JUMP JUMPDEST PUSH0 DUP2 CALLDATALOAD SWAP1 POP PUSH2 0x28F7 DUP2 PUSH2 0x28D3 JUMP JUMPDEST SWAP3 SWAP2 POP POP JUMP JUMPDEST PUSH0 PUSH1 0x20 DUP3 DUP5 SUB SLT ISZERO PUSH2 0x2912 JUMPI PUSH2 0x2911 PUSH2 0x28A0 JUMP JUMPDEST JUMPDEST PUSH0 PUSH2 0x291F DUP5 DUP3 DUP6 ADD PUSH2 0x28E9 JUMP JUMPDEST SWAP2 POP POP SWAP3 SWAP2 POP POP JUMP JUMPDEST PUSH0 DUP2 ISZERO ISZERO SWAP1 POP SWAP2 SWAP1 POP JUMP JUMPDEST PUSH2 0x293C DUP2 PUSH2 0x2928 JUMP JUMPDEST DUP3 MSTORE POP POP JUMP JUMPDEST PUSH0 PUSH1 0x20 DUP3 ADD SWAP1 POP PUSH2 0x2955 PUSH0 DUP4 ADD DUP5 PUSH2 0x2933 JUMP JUMPDEST SWAP3 SWAP2 POP POP JUMP JUMPDEST PUSH0 DUP2 SWAP1 POP SWAP2 SWAP1 POP JUMP JUMPDEST PUSH2 0x296D DUP2 PUSH2 0x295B JUMP JUMPDEST DUP3 MSTORE POP POP JUMP JUMPDEST PUSH0 PUSH1 0x20 DUP3 ADD SWAP1 POP PUSH2 0x2986 PUSH0 DUP4 ADD DUP5 PUSH2 0x2964 JUMP JUMPDEST SWAP3 SWAP2 POP POP JUMP JUMPDEST PUSH0 PUSH2 0xFFFF DUP3 AND SWAP1 POP SWAP2 SWAP1 POP JUMP JUMPDEST PUSH2 0x29A2 DUP2 PUSH2 0x298C JUMP JUMPDEST DUP3 MSTORE POP POP JUMP JUMPDEST PUSH0 PUSH1 0x20 DUP3 ADD SWAP1 POP PUSH2 0x29BB PUSH0 DUP4 ADD DUP5 PUSH2 0x2999 JUMP JUMPDEST SWAP3 SWAP2 POP POP JUMP JUMPDEST PUSH2 0x29CA DUP2 PUSH2 0x295B JUMP JUMPDEST DUP2 EQ PUSH2 0x29D4 JUMPI PUSH0 DUP1 REVERT JUMPDEST POP JUMP JUMPDEST PUSH0 DUP2 CALLDATALOAD SWAP1 POP PUSH2 0x29E5 DUP2 PUSH2 0x29C1 JUMP JUMPDEST SWAP3 SWAP2 POP POP JUMP JUMPDEST PUSH0 PUSH1 0x20 DUP3 DUP5 SUB SLT ISZERO PUSH2 0x2A00 JUMPI PUSH2 0x29FF PUSH2 0x28A0 JUMP JUMPDEST JUMPDEST PUSH0 PUSH2 0x2A0D DUP5 DUP3 DUP6 ADD PUSH2 0x29D7 JUMP JUMPDEST SWAP2 POP POP SWAP3 SWAP2 POP POP JUMP JUMPDEST PUSH32 0x4E487B7100000000000000000000000000000000000000000000000000000000 PUSH0 MSTORE PUSH1 0x21 PUSH1 0x4 MSTORE PUSH1 0x24 PUSH0 REVERT JUMPDEST PUSH1 0x2 DUP2 LT PUSH2 0x2A54 JUMPI PUSH2 0x2A53 PUSH2 0x2A16 JUMP JUMPDEST JUMPDEST POP JUMP JUMPDEST PUSH0 DUP2 SWAP1 POP PUSH2 0x2A64 DUP3 PUSH2 0x2A43 JUMP JUMPDEST SWAP2 SWAP1 POP JUMP JUMPDEST PUSH0 PUSH2 0x2A73 DUP3 PUSH2 0x2A57 JUMP JUMPDEST SWAP1 POP SWAP2 SWAP1 POP JUMP JUMPDEST PUSH2 0x2A83 DUP2 PUSH2 0x2A69 JUMP JUMPDEST DUP3 MSTORE POP POP JUMP JUMPDEST PUSH0 PUSH1 0xFF DUP3 AND SWAP1 POP SWAP2 SWAP1 POP JUMP JUMPDEST PUSH2 0x2A9E DUP2 PUSH2 0x2A89 JUMP JUMPDEST DUP3 MSTORE POP POP JUMP JUMPDEST PUSH0 PUSH1 0x80 DUP3 ADD SWAP1 POP PUSH2 0x2AB7 PUSH0 DUP4 ADD DUP8 PUSH2 0x2A7A JUMP JUMPDEST PUSH2 0x2AC4 PUSH1 0x20 DUP4 ADD DUP7 PUSH2 0x2964 JUMP JUMPDEST PUSH2 0x2AD1 PUSH1 0x40 DUP4 ADD DUP6 PUSH2 0x2A95 JUMP JUMPDEST PUSH2 0x2ADE PUSH1 0x60 DUP4 ADD DUP5 PUSH2 0x2964 JUMP JUMPDEST SWAP6 SWAP5 POP POP POP POP POP JUMP JUMPDEST PUSH0 PUSH20 0xFFFFFFFFFFFFFFFFFFFFFFFFFFFFFFFFFFFFFFFF DUP3 AND SWAP1 POP SWAP2 SWAP1 POP JUMP JUMPDEST PUSH0 PUSH2 0x2B10 DUP3 PUSH2 0x2AE7 JUMP JUMPDEST SWAP1 POP SWAP2 SWAP1 POP JUMP JUMPDEST PUSH2 0x2B20 DUP2 PUSH2 0x2B06 JUMP JUMPDEST DUP3 MSTORE POP POP JUMP JUMPDEST PUSH0 PUSH1 0x20 DUP3 ADD SWAP1 POP PUSH2 0x2B39 PUSH0 DUP4 ADD DUP5 PUSH2 0x2B17 JUMP JUMPDEST SWAP3 SWAP2 POP POP JUMP JUMPDEST PUSH0 PUSH2 0x2B49 DUP3 PUSH2 0x2AE7 JUMP JUMPDEST SWAP1 POP SWAP2 SWAP1 POP JUMP JUMPDEST PUSH2 0x2B59 DUP2 PUSH2 0x2B3F JUMP JUMPDEST DUP2 EQ PUSH2 0x2B63 JUMPI PUSH0 DUP1 REVERT JUMPDEST POP JUMP JUMPDEST PUSH0 DUP2 CALLDATALOAD SWAP1 POP PUSH2 0x2B74 DUP2 PUSH2 0x2B50 JUMP JUMPDEST SWAP3 SWAP2 POP POP JUMP JUMPDEST PUSH0 PUSH1 0x20 DUP3 DUP5 SUB SLT ISZERO PUSH2 0x2B8F JUMPI PUSH2 0x2B8E PUSH2 0x28A0 JUMP JUMPDEST JUMPDEST PUSH0 PUSH2 0x2B9C DUP5 DUP3 DUP6 ADD PUSH2 0x2B66 JUMP JUMPDEST SWAP2 POP POP SWAP3 SWAP2 POP POP JUMP JUMPDEST PUSH0 DUP2 SWAP1 POP SWAP2 SWAP1 POP JUMP JUMPDEST PUSH2 0x2BB7 DUP2 PUSH2 0x2BA5 JUMP JUMPDEST DUP2 EQ PUSH2 0x2BC1 JUMPI PUSH0 DUP1 REVERT JUMPDEST POP JUMP JUMPDEST PUSH0 DUP2 CALLDATALOAD SWAP1 POP PUSH2 0x2BD2 DUP2 PUSH2 0x2BAE JUMP JUMPDEST SWAP3 SWAP2 POP POP JUMP JUMPDEST PUSH0 PUSH1 0x20 DUP3 DUP5 SUB SLT ISZERO PUSH2 0x2BED JUMPI PUSH2 0x2BEC PUSH2 0x28A0 JUMP JUMPDEST JUMPDEST PUSH0 PUSH2 0x2BFA DUP5 DUP3 DUP6 ADD PUSH2 0x2BC4 JUMP JUMPDEST SWAP2 POP POP SWAP3 SWAP2 POP POP JUMP JUMPDEST PUSH2 0x2C0C DUP2 PUSH2 0x2BA5 JUMP JUMPDEST DUP3 MSTORE POP POP JUMP JUMPDEST PUSH0 PUSH1 0x20 DUP3 ADD SWAP1 POP PUSH2 0x2C25 PUSH0 DUP4 ADD DUP5 PUSH2 0x2C03 JUMP JUMPDEST SWAP3 SWAP2 POP POP JUMP JUMPDEST PUSH0 DUP1 PUSH1 0x40 DUP4 DUP6 SUB SLT ISZERO PUSH2 0x2C41 JUMPI PUSH2 0x2C40 PUSH2 0x28A0 JUMP JUMPDEST JUMPDEST PUSH0 PUSH2 0x2C4E DUP6 DUP3 DUP7 ADD PUSH2 0x2BC4 JUMP JUMPDEST SWAP3 POP POP PUSH1 0x20 PUSH2 0x2C5F DUP6 DUP3 DUP7 ADD PUSH2 0x2B66 JUMP JUMPDEST SWAP2 POP POP SWAP3 POP SWAP3 SWAP1 POP JUMP JUMPDEST PUSH0 DUP1 REVERT JUMPDEST PUSH0 PUSH1 0x1F NOT PUSH1 0x1F DUP4 ADD AND SWAP1 POP SWAP2 SWAP1 POP JUMP JUMPDEST PUSH32 0x4E487B7100000000000000000000000000000000000000000000000000000000 PUSH0 MSTORE PUSH1 0x41 PUSH1 0x4 MSTORE PUSH1 0x24 PUSH0 REVERT JUMPDEST PUSH2 0x2CB3 DUP3 PUSH2 0x2C6D JUMP JUMPDEST DUP2 ADD DUP2 DUP2 LT PUSH8 0xFFFFFFFFFFFFFFFF DUP3 GT OR ISZERO PUSH2 0x2CD2 JUMPI PUSH2 0x2CD1 PUSH2 0x2C7D JUMP JUMPDEST JUMPDEST DUP1 PUSH1 0x40 MSTORE POP POP POP JUMP JUMPDEST PUSH0 PUSH2 0x2CE4 PUSH2 0x2897 JUMP JUMPDEST SWAP1 POP PUSH2 0x2CF0 DUP3 DUP3 PUSH2 0x2CAA JUMP JUMPDEST SWAP2 SWAP1 POP JUMP JUMPDEST PUSH0 PUSH8 0xFFFFFFFFFFFFFFFF DUP3 GT ISZERO PUSH2 0x2D0F JUMPI PUSH2 0x2D0E PUSH2 0x2C7D JUMP JUMPDEST JUMPDEST PUSH1 0x20 DUP3 MUL SWAP1 POP PUSH1 0x20 DUP2 ADD SWAP1 POP SWAP2 SWAP1 POP JUMP JUMPDEST PUSH0 DUP1 REVERT JUMPDEST PUSH2 0x2D2D DUP2 PUSH2 0x2A89 JUMP JUMPDEST DUP2 EQ PUSH2 0x2D37 JUMPI PUSH0 DUP1 REVERT JUMPDEST POP JUMP JUMPDEST PUSH0 DUP2 CALLDATALOAD SWAP1 POP PUSH2 0x2D48 DUP2 PUSH2 0x2D24 JUMP JUMPDEST SWAP3 SWAP2 POP POP JUMP JUMPDEST PUSH0 PUSH2 0x2D60 PUSH2 0x2D5B DUP5 PUSH2 0x2CF5 JUMP JUMPDEST PUSH2 0x2CDB JUMP JUMPDEST SWAP1 POP DUP1 DUP4 DUP3 MSTORE PUSH1 0x20 DUP3 ADD SWAP1 POP PUSH1 0x20 DUP5 MUL DUP4 ADD DUP6 DUP2 GT ISZERO PUSH2 0x2D83 JUMPI PUSH2 0x2D82 PUSH2 0x2D20 JUMP JUMPDEST JUMPDEST DUP4 JUMPDEST DUP2 DUP2 LT ISZERO PUSH2 0x2DAC JUMPI DUP1 PUSH2 0x2D98 DUP9 DUP3 PUSH2 0x2D3A JUMP JUMPDEST DUP5 MSTORE PUSH1 0x20 DUP5 ADD SWAP4 POP POP PUSH1 0x20 DUP2 ADD SWAP1 POP PUSH2 0x2D85 JUMP JUMPDEST POP POP POP SWAP4 SWAP3 POP POP POP JUMP JUMPDEST PUSH0 DUP3 PUSH1 0x1F DUP4 ADD SLT PUSH2 0x2DCA JUMPI PUSH2 0x2DC9 PUSH2 0x2C69 JUMP JUMPDEST JUMPDEST DUP2 CALLDATALOAD PUSH2 0x2DDA DUP5 DUP3 PUSH1 0x20 DUP7 ADD PUSH2 0x2D4E JUMP JUMPDEST SWAP2 POP POP SWAP3 SWAP2 POP POP JUMP JUMPDEST PUSH0 DUP1 PUSH0 PUSH1 0x60 DUP5 DUP7 SUB SLT ISZERO PUSH2 0x2DFA JUMPI PUSH2 0x2DF9 PUSH2 0x28A0 JUMP JUMPDEST JUMPDEST PUSH0 PUSH2 0x2E07 DUP7 DUP3 DUP8 ADD PUSH2 0x29D7 JUMP JUMPDEST SWAP4 POP POP PUSH1 0x20 DUP5 ADD CALLDATALOAD PUSH8 0xFFFFFFFFFFFFFFFF DUP2 GT ISZERO PUSH2 0x2E28 JUMPI PUSH2 0x2E27 PUSH2 0x28A4 JUMP JUMPDEST JUMPDEST PUSH2 0x2E34 DUP7 DUP3 DUP8 ADD PUSH2 0x2DB6 JUMP JUMPDEST SWAP3 POP POP PUSH1 0x40 PUSH2 0x2E45 DUP7 DUP3 DUP8 ADD PUSH2 0x2D3A JUMP JUMPDEST SWAP2 POP POP SWAP3 POP SWAP3 POP SWAP3 JUMP JUMPDEST PUSH0 PUSH1 0x20 DUP3 ADD SWAP1 POP PUSH2 0x2E62 PUSH0 DUP4 ADD DUP5 PUSH2 0x2A7A JUMP JUMPDEST SWAP3 SWAP2 POP POP JUMP JUMPDEST PUSH2 0x2E71 DUP2 PUSH2 0x2B3F JUMP JUMPDEST DUP3 MSTORE POP POP JUMP JUMPDEST PUSH0 PUSH1 0x20 DUP3 ADD SWAP1 POP PUSH2 0x2E8A PUSH0 DUP4 ADD DUP5 PUSH2 0x2E68 JUMP JUMPDEST SWAP3 SWAP2 POP POP JUMP JUMPDEST PUSH0 DUP1 PUSH1 0x40 DUP4 DUP6 SUB SLT ISZERO PUSH2 0x2EA6 JUMPI PUSH2 0x2EA5 PUSH2 0x28A0 JUMP JUMPDEST JUMPDEST PUSH0 PUSH2 0x2EB3 DUP6 DUP3 DUP7 ADD PUSH2 0x29D7 JUMP JUMPDEST SWAP3 POP POP PUSH1 0x20 PUSH2 0x2EC4 DUP6 DUP3 DUP7 ADD PUSH2 0x29D7 JUMP JUMPDEST SWAP2 POP POP SWAP3 POP SWAP3 SWAP1 POP JUMP JUMPDEST PUSH1 0x6 DUP2 LT PUSH2 0x2EDA JUMPI PUSH0 DUP1 REVERT JUMPDEST POP JUMP JUMPDEST PUSH0 DUP2 CALLDATALOAD SWAP1 POP PUSH2 0x2EEB DUP2 PUSH2 0x2ECE JUMP JUMPDEST SWAP3 SWAP2 POP POP JUMP JUMPDEST PUSH0 DUP1 PUSH0 DUP1 PUSH1 0x80 DUP6 DUP8 SUB SLT ISZERO PUSH2 0x2F09 JUMPI PUSH2 0x2F08 PUSH2 0x28A0 JUMP JUMPDEST JUMPDEST PUSH0 PUSH2 0x2F16 DUP8 DUP3 DUP9 ADD PUSH2 0x29D7 JUMP JUMPDEST SWAP5 POP POP PUSH1 0x20 DUP6 ADD CALLDATALOAD PUSH8 0xFFFFFFFFFFFFFFFF DUP2 GT ISZERO PUSH2 0x2F37 JUMPI PUSH2 0x2F36 PUSH2 0x28A4 JUMP JUMPDEST JUMPDEST PUSH2 0x2F43 DUP8 DUP3 DUP9 ADD PUSH2 0x2DB6 JUMP JUMPDEST SWAP4 POP POP PUSH1 0x40 PUSH2 0x2F54 DUP8 DUP3 DUP9 ADD PUSH2 0x2EDD JUMP JUMPDEST SWAP3 POP POP PUSH1 0x60 PUSH2 0x2F65 DUP8 DUP3 DUP9 ADD PUSH2 0x29D7 JUMP JUMPDEST SWAP2 POP POP SWAP3 SWAP6 SWAP2 SWAP5 POP SWAP3 POP JUMP JUMPDEST PUSH2 0x2F7A DUP2 PUSH2 0x298C JUMP JUMPDEST DUP2 EQ PUSH2 0x2F84 JUMPI PUSH0 DUP1 REVERT JUMPDEST POP JUMP JUMPDEST PUSH0 DUP2 CALLDATALOAD SWAP1 POP PUSH2 0x2F95 DUP2 PUSH2 0x2F71 JUMP JUMPDEST SWAP3 SWAP2 POP POP JUMP JUMPDEST PUSH0 PUSH1 0x20 DUP3 DUP5 SUB SLT ISZERO PUSH2 0x2FB0 JUMPI PUSH2 0x2FAF PUSH2 0x28A0 JUMP JUMPDEST JUMPDEST PUSH0 PUSH2 0x2FBD DUP5 DUP3 DUP6 ADD PUSH2 0x2F87 JUMP JUMPDEST SWAP2 POP POP SWAP3 SWAP2 POP POP JUMP JUMPDEST PUSH0 DUP3 DUP3 MSTORE PUSH1 0x20 DUP3 ADD SWAP1 POP SWAP3 SWAP2 POP POP JUMP JUMPDEST PUSH32 0x4265742053657373696F6E20496420496E76616C696400000000000000000000 PUSH0 DUP3 ADD MSTORE POP JUMP JUMPDEST PUSH0 PUSH2 0x300A PUSH1 0x16 DUP4 PUSH2 0x2FC6 JUMP JUMPDEST SWAP2 POP PUSH2 0x3015 DUP3 PUSH2 0x2FD6 JUMP JUMPDEST PUSH1 0x20 DUP3 ADD SWAP1 POP SWAP2 SWAP1 POP JUMP JUMPDEST PUSH0 PUSH1 0x20 DUP3 ADD SWAP1 POP DUP2 DUP2 SUB PUSH0 DUP4 ADD MSTORE PUSH2 0x3037 DUP2 PUSH2 0x2FFE JUMP JUMPDEST SWAP1 POP SWAP2 SWAP1 POP JUMP JUMPDEST PUSH32 0x4265742053657373696F6E204E6F742050726F63657373696F6E670000000000 PUSH0 DUP3 ADD MSTORE POP JUMP JUMPDEST PUSH0 PUSH2 0x3072 PUSH1 0x1B DUP4 PUSH2 0x2FC6 JUMP JUMPDEST SWAP2 POP PUSH2 0x307D DUP3 PUSH2 0x303E JUMP JUMPDEST PUSH1 0x20 DUP3 ADD SWAP1 POP SWAP2 SWAP1 POP JUMP JUMPDEST PUSH0 PUSH1 0x20 DUP3 ADD SWAP1 POP DUP2 DUP2 SUB PUSH0 DUP4 ADD MSTORE PUSH2 0x309F DUP2 PUSH2 0x3066 JUMP JUMPDEST SWAP1 POP SWAP2 SWAP1 POP JUMP JUMPDEST PUSH32 0x4E487B7100000000000000000000000000000000000000000000000000000000 PUSH0 MSTORE PUSH1 0x32 PUSH1 0x4 MSTORE PUSH1 0x24 PUSH0 REVERT JUMPDEST PUSH32 0x4E487B7100000000000000000000000000000000000000000000000000000000 PUSH0 MSTORE PUSH1 0x11 PUSH1 0x4 MSTORE PUSH1 0x24 PUSH0 REVERT JUMPDEST PUSH0 PUSH2 0x310A DUP3 PUSH2 0x295B JUMP JUMPDEST SWAP2 POP PUSH2 0x3115 DUP4 PUSH2 0x295B JUMP JUMPDEST SWAP3 POP DUP3 DUP3 MUL PUSH2 0x3123 DUP2 PUSH2 0x295B JUMP JUMPDEST SWAP2 POP DUP3 DUP3 DIV DUP5 EQ DUP4 ISZERO OR PUSH2 0x313A JUMPI PUSH2 0x3139 PUSH2 0x30D3 JUMP JUMPDEST JUMPDEST POP SWAP3 SWAP2 POP POP JUMP JUMPDEST PUSH32 0x4E487B7100000000000000000000000000000000000000000000000000000000 PUSH0 MSTORE PUSH1 0x12 PUSH1 0x4 MSTORE PUSH1 0x24 PUSH0 REVERT JUMPDEST PUSH0 PUSH2 0x3178 DUP3 PUSH2 0x295B JUMP JUMPDEST SWAP2 POP PUSH2 0x3183 DUP4 PUSH2 0x295B JUMP JUMPDEST SWAP3 POP DUP3 PUSH2 0x3193 JUMPI PUSH2 0x3192 PUSH2 0x3141 JUMP JUMPDEST JUMPDEST DUP3 DUP3 DIV SWAP1 POP SWAP3 SWAP2 POP POP JUMP JUMPDEST PUSH0 PUSH2 0x31A8 DUP3 PUSH2 0x295B JUMP JUMPDEST SWAP2 POP PUSH2 0x31B3 DUP4 PUSH2 0x295B JUMP JUMPDEST SWAP3 POP DUP3 DUP3 ADD SWAP1 POP DUP1 DUP3 GT ISZERO PUSH2 0x31CB JUMPI PUSH2 0x31CA PUSH2 0x30D3 JUMP JUMPDEST JUMPDEST SWAP3 SWAP2 POP POP JUMP JUMPDEST PUSH0 PUSH2 0x31DB DUP3 PUSH2 0x295B JUMP JUMPDEST SWAP2 POP PUSH32 0xFFFFFFFFFFFFFFFFFFFFFFFFFFFFFFFFFFFFFFFFFFFFFFFFFFFFFFFFFFFFFFFF DUP3 SUB PUSH2 0x320D JUMPI PUSH2 0x320C PUSH2 0x30D3 JUMP JUMPDEST JUMPDEST PUSH1 0x1 DUP3 ADD SWAP1 POP SWAP2 SWAP1 POP JUMP JUMPDEST PUSH0 PUSH2 0x3222 DUP3 PUSH2 0x295B JUMP JUMPDEST SWAP2 POP PUSH2 0x322D DUP4 PUSH2 0x295B JUMP JUMPDEST SWAP3 POP DUP3 DUP3 SUB SWAP1 POP DUP2 DUP2 GT ISZERO PUSH2 0x3245 JUMPI PUSH2 0x3244 PUSH2 0x30D3 JUMP JUMPDEST JUMPDEST SWAP3 SWAP2 POP POP JUMP JUMPDEST PUSH0 DUP2 MLOAD SWAP1 POP SWAP2 SWAP1 POP JUMP JUMPDEST PUSH0 DUP2 SWAP1 POP SWAP3 SWAP2 POP POP JUMP JUMPDEST PUSH0 DUP2 SWAP1 POP PUSH1 0x20 DUP3 ADD SWAP1 POP SWAP2 SWAP1 POP JUMP JUMPDEST PUSH2 0x3277 DUP2 PUSH2 0x2A89 JUMP JUMPDEST DUP3 MSTORE POP POP JUMP JUMPDEST PUSH0 PUSH2 0x3288 DUP4 DUP4 PUSH2 0x326E JUMP JUMPDEST PUSH1 0x20 DUP4 ADD SWAP1 POP SWAP3 SWAP2 POP POP JUMP JUMPDEST PUSH0 PUSH1 0x20 DUP3 ADD SWAP1 POP SWAP2 SWAP1 POP JUMP JUMPDEST PUSH0 PUSH2 0x32AA DUP3 PUSH2 0x324B JUMP JUMPDEST PUSH2 0x32B4 DUP2 DUP6 PUSH2 0x3255 JUMP JUMPDEST SWAP4 POP PUSH2 0x32BF DUP4 PUSH2 0x325F JUMP JUMPDEST DUP1 PUSH0 JUMPDEST DUP4 DUP2 LT ISZERO PUSH2 0x32EF JUMPI DUP2 MLOAD PUSH2 0x32D6 DUP9 DUP3 PUSH2 0x327D JUMP JUMPDEST SWAP8 POP PUSH2 0x32E1 DUP4 PUSH2 0x3294 JUMP JUMPDEST SWAP3 POP POP PUSH1 0x1 DUP2 ADD SWAP1 POP PUSH2 0x32C2 JUMP JUMPDEST POP DUP6 SWAP4 POP POP POP POP SWAP3 SWAP2 POP POP JUMP JUMPDEST PUSH0 PUSH2 0x3307 DUP3 DUP5 PUSH2 0x32A0 JUMP JUMPDEST SWAP2 POP DUP2 SWAP1 POP SWAP3 SWAP2 POP POP JUMP JUMPDEST PUSH32 0x496E76616C696420496E70757400000000000000000000000000000000000000 PUSH0 DUP3 ADD MSTORE POP JUMP JUMPDEST PUSH0 PUSH2 0x3346 PUSH1 0xD DUP4 PUSH2 0x2FC6 JUMP JUMPDEST SWAP2 POP PUSH2 0x3351 DUP3 PUSH2 0x3312 JUMP JUMPDEST PUSH1 0x20 DUP3 ADD SWAP1 POP SWAP2 SWAP1 POP JUMP JUMPDEST PUSH0 PUSH1 0x20 DUP3 ADD SWAP1 POP DUP2 DUP2 SUB PUSH0 DUP4 ADD MSTORE PUSH2 0x3373 DUP2 PUSH2 0x333A JUMP JUMPDEST SWAP1 POP SWAP2 SWAP1 POP JUMP JUMPDEST PUSH32 0x53756D204F6620526174696F73204D75737420457175616C2031300000000000 PUSH0 DUP3 ADD MSTORE POP JUMP JUMPDEST PUSH0 PUSH2 0x33AE PUSH1 0x1B DUP4 PUSH2 0x2FC6 JUMP JUMPDEST SWAP2 POP PUSH2 0x33B9 DUP3 PUSH2 0x337A JUMP JUMPDEST PUSH1 0x20 DUP3 ADD SWAP1 POP SWAP2 SWAP1 POP JUMP JUMPDEST PUSH0 PUSH1 0x20 DUP3 ADD SWAP1 POP DUP2 DUP2 SUB PUSH0 DUP4 ADD MSTORE PUSH2 0x33DB DUP2 PUSH2 0x33A2 JUMP JUMPDEST SWAP1 POP SWAP2 SWAP1 POP JUMP JUMPDEST PUSH32 0x42657420416D6F756E74204D7573742047726561746572205468616E205A4552 PUSH0 DUP3 ADD MSTORE PUSH32 0x4F00000000000000000000000000000000000000000000000000000000000000 PUSH1 0x20 DUP3 ADD MSTORE POP JUMP JUMPDEST PUSH0 PUSH2 0x343C PUSH1 0x21 DUP4 PUSH2 0x2FC6 JUMP JUMPDEST SWAP2 POP PUSH2 0x3447 DUP3 PUSH2 0x33E2 JUMP JUMPDEST PUSH1 0x40 DUP3 ADD SWAP1 POP SWAP2 SWAP1 POP JUMP JUMPDEST PUSH0 PUSH1 0x20 DUP3 ADD SWAP1 POP DUP2 DUP2 SUB PUSH0 DUP4 ADD MSTORE PUSH2 0x3469 DUP2 PUSH2 0x3430 JUMP JUMPDEST SWAP1 POP SWAP2 SWAP1 POP JUMP JUMPDEST PUSH32 0x42657420416D6F756E74204E6F74204D61746368656400000000000000000000 PUSH0 DUP3 ADD MSTORE POP JUMP JUMPDEST PUSH0 PUSH2 0x34A4 PUSH1 0x16 DUP4 PUSH2 0x2FC6 JUMP JUMPDEST SWAP2 POP PUSH2 0x34AF DUP3 PUSH2 0x3470 JUMP JUMPDEST PUSH1 0x20 DUP3 ADD SWAP1 POP SWAP2 SWAP1 POP JUMP JUMPDEST PUSH0 PUSH1 0x20 DUP3 ADD SWAP1 POP DUP2 DUP2 SUB PUSH0 DUP4 ADD MSTORE PUSH2 0x34D1 DUP2 PUSH2 0x3498 JUMP JUMPDEST SWAP1 POP SWAP2 SWAP1 POP JUMP JUMPDEST PUSH32 0x42657420416D6F756E742052656163686564204D61782042657420416D6F756E PUSH0 DUP3 ADD MSTORE PUSH32 0x7400000000000000000000000000000000000000000000000000000000000000 PUSH1 0x20 DUP3 ADD MSTORE POP JUMP JUMPDEST PUSH0 PUSH2 0x3532 PUSH1 0x21 DUP4 PUSH2 0x2FC6 JUMP JUMPDEST SWAP2 POP PUSH2 0x353D DUP3 PUSH2 0x34D8 JUMP JUMPDEST PUSH1 0x40 DUP3 ADD SWAP1 POP SWAP2 SWAP1 POP JUMP JUMPDEST PUSH0 PUSH1 0x20 DUP3 ADD SWAP1 POP DUP2 DUP2 SUB PUSH0 DUP4 ADD MSTORE PUSH2 0x355F DUP2 PUSH2 0x3526 JUMP JUMPDEST SWAP1 POP SWAP2 SWAP1 POP JUMP JUMPDEST PUSH1 0x6 DUP2 LT PUSH2 0x3577 JUMPI PUSH2 0x3576 PUSH2 0x2A16 JUMP JUMPDEST JUMPDEST POP JUMP JUMPDEST PUSH0 DUP2 SWAP1 POP PUSH2 0x3587 DUP3 PUSH2 0x3566 JUMP JUMPDEST SWAP2 SWAP1 POP JUMP JUMPDEST PUSH0 PUSH2 0x3596 DUP3 PUSH2 0x357A JUMP JUMPDEST SWAP1 POP SWAP2 SWAP1 POP JUMP JUMPDEST PUSH2 0x35A6 DUP2 PUSH2 0x358C JUMP JUMPDEST DUP3 MSTORE POP POP JUMP JUMPDEST PUSH0 PUSH1 0x40 DUP3 ADD SWAP1 POP PUSH2 0x35BF PUSH0 DUP4 ADD DUP6 PUSH2 0x359D JUMP JUMPDEST PUSH2 0x35CC PUSH1 0x20 DUP4 ADD DUP5 PUSH2 0x2964 JUMP JUMPDEST SWAP4 SWAP3 POP POP POP JUMP JUMPDEST PUSH32 0x57696E6E696E6720416D6F756E74204973205A45524F206F72204E6F74204578 PUSH0 DUP3 ADD MSTORE PUSH32 0x6973740000000000000000000000000000000000000000000000000000000000 PUSH1 0x20 DUP3 ADD MSTORE POP JUMP JUMPDEST PUSH0 PUSH2 0x362D PUSH1 0x23 DUP4 PUSH2 0x2FC6 JUMP JUMPDEST SWAP2 POP PUSH2 0x3638 DUP3 PUSH2 0x35D3 JUMP JUMPDEST PUSH1 0x40 DUP3 ADD SWAP1 POP SWAP2 SWAP1 POP JUMP JUMPDEST PUSH0 PUSH1 0x20 DUP3 ADD SWAP1 POP DUP2 DUP2 SUB PUSH0 DUP4 ADD MSTORE PUSH2 0x365A DUP2 PUSH2 0x3621 JUMP JUMPDEST SWAP1 POP SWAP2 SWAP1 POP JUMP JUMPDEST PUSH32 0x416D6F756E74204D7573742042652047726561746572205468616E205A45524F PUSH0 DUP3 ADD MSTORE POP JUMP JUMPDEST PUSH0 PUSH2 0x3695 PUSH1 0x20 DUP4 PUSH2 0x2FC6 JUMP JUMPDEST SWAP2 POP PUSH2 0x36A0 DUP3 PUSH2 0x3661 JUMP JUMPDEST PUSH1 0x20 DUP3 ADD SWAP1 POP SWAP2 SWAP1 POP JUMP JUMPDEST PUSH0 PUSH1 0x20 DUP3 ADD SWAP1 POP DUP2 DUP2 SUB PUSH0 DUP4 ADD MSTORE PUSH2 0x36C2 DUP2 PUSH2 0x3689 JUMP JUMPDEST SWAP1 POP SWAP2 SWAP1 POP JUMP JUMPDEST PUSH32 0x416D6F756E74204D7573742042652047726561746572205468616E205A45524F PUSH0 DUP3 ADD MSTORE PUSH32 0x20416E64204C657373205468616E20547265617375727920616D6F756E740000 PUSH1 0x20 DUP3 ADD MSTORE POP JUMP JUMPDEST PUSH0 PUSH2 0x3723 PUSH1 0x3E DUP4 PUSH2 0x2FC6 JUMP JUMPDEST SWAP2 POP PUSH2 0x372E DUP3 PUSH2 0x36C9 JUMP JUMPDEST PUSH1 0x40 DUP3 ADD SWAP1 POP SWAP2 SWAP1 POP JUMP JUMPDEST PUSH0 PUSH1 0x20 DUP3 ADD SWAP1 POP DUP2 DUP2 SUB PUSH0 DUP4 ADD MSTORE PUSH2 0x3750 DUP2 PUSH2 0x3717 JUMP JUMPDEST SWAP1 POP SWAP2 SWAP1 POP JUMP JUMPDEST PUSH0 PUSH1 0x40 DUP3 ADD SWAP1 POP PUSH2 0x376A PUSH0 DUP4 ADD DUP6 PUSH2 0x2E68 JUMP JUMPDEST PUSH2 0x3777 PUSH1 0x20 DUP4 ADD DUP5 PUSH2 0x2C03 JUMP JUMPDEST SWAP4 SWAP3 POP POP POP JUMP INVALID LOG2 PUSH5 0x6970667358 0x22 SLT KECCAK256 0xA9 0xC6 STATICCALL 0xD5 PREVRANDAO 0xA5 CALLER LOG0 EXTCODEHASH LOG0 SUB CREATE2 SWAP10 0xC2 EXTCODEHASH DUP15 PUSH11 0x94AE4792EF8536D32666A0 BLOCKHASH CALLDATASIZE DUP3 SWAP5 PUSH5 0x736F6C6343 STOP ADDMOD ISZERO STOP CALLER "
		},
		"gasEstimates": {
			"creation": {
				"codeDepositCost": "2852000",
				"executionCost": "infinite",
				"totalCost": "infinite"
			},
			"external": {
				"ADMINER_ROLE()": "437",
				"DEFAULT_ADMIN_ROLE()": "486",
				"G_MODE_WINNING_RATE()": "436",
				"PAUSER_ROLE()": "391",
				"SKEWER_2_WINNING_RATE()": "415",
				"SKEWER_3_WINNING_RATE()": "415",
				"SKEWER_4_WINNING_RATE()": "414",
				"S_MODE_WINNING_RATE()": "416",
				"_corePoolAddress()": "2663",
				"_corePoolAmount()": "2494",
				"_isLock()": "2650",
				"_ratioCorePool()": "2514",
				"_ratioMaxBetAmount()": "2579",
				"_ratioStakingPool()": "2514",
				"_ratioTresuryPool()": "2515",
				"_stakingPoolAddress()": "2618",
				"_stakingPoolAmount()": "2470",
				"_treasuryPoolAddress()": "2665",
				"_treasuryPoolAmount()": "2536",
				"betSessions(uint256)": "infinite",
				"createNewBetSession()": "84079",
				"finalizeBetSession(uint256,uint8[],uint8)": "infinite",
				"getBetSessionStatusById(uint256)": "3059",
				"getNumBetSessions()": "2500",
				"getNumberPlayersInBetSession(uint256)": "infinite",
				"getRoleAdmin(bytes32)": "infinite",
				"getWinnerAddressById(uint256)": "2919",
				"getWinnerIdByAddress(address)": "2897",
				"getWinningAmountByAddress(address)": "2875",
				"grantRole(bytes32,address)": "infinite",
				"hasRole(bytes32,address)": "3255",
				"lock()": "27061",
				"numBetSessions()": "2471",
				"numWinners()": "2536",
				"pause()": "infinite",
				"paused()": "2607",
				"play(uint256,uint8[],uint8,uint256)": "infinite",
				"renounceRole(bytes32,address)": "infinite",
				"revokeRole(bytes32,address)": "infinite",
				"supportsInterface(bytes4)": "764",
				"unlock()": "26973",
				"unpause()": "infinite",
				"updateCorePoolAmount()": "infinite",
				"updateRatioMaxBetAmount(uint16)": "29488",
				"updateRatioPools(uint256,uint256)": "infinite",
				"winnerAddressById(uint256)": "2895",
				"winnerIdByAddress(address)": "2914",
				"withdrawStakingPoolAmount(uint256)": "infinite",
				"withdrawTreasuryPoolAmount(uint256)": "infinite",
				"withdrawWinningAmount()": "infinite"
			}
		},
		"methodIdentifiers": {
			"ADMINER_ROLE()": "9c77f6b5",
			"DEFAULT_ADMIN_ROLE()": "a217fddf",
			"G_MODE_WINNING_RATE()": "beabaec1",
			"PAUSER_ROLE()": "e63ab1e9",
			"SKEWER_2_WINNING_RATE()": "1f6f6f46",
			"SKEWER_3_WINNING_RATE()": "57ef7dcf",
			"SKEWER_4_WINNING_RATE()": "847d983b",
			"S_MODE_WINNING_RATE()": "05624985",
			"_corePoolAddress()": "c86c4b5f",
			"_corePoolAmount()": "0498e1b7",
			"_isLock()": "b01d324b",
			"_ratioCorePool()": "be4c7505",
			"_ratioMaxBetAmount()": "07e1974f",
			"_ratioStakingPool()": "dd55f3dc",
			"_ratioTresuryPool()": "786f98f2",
			"_stakingPoolAddress()": "ed132ccf",
			"_stakingPoolAmount()": "b452e7c9",
			"_treasuryPoolAddress()": "1337d240",
			"_treasuryPoolAmount()": "ab55303e",
			"betSessions(uint256)": "0dac9a34",
			"createNewBetSession()": "9e5cbafd",
			"finalizeBetSession(uint256,uint8[],uint8)": "466e483d",
			"getBetSessionStatusById(uint256)": "5e4c0652",
			"getNumBetSessions()": "71283639",
			"getNumberPlayersInBetSession(uint256)": "7c28db46",
			"getRoleAdmin(bytes32)": "248a9ca3",
			"getWinnerAddressById(uint256)": "b8deab62",
			"getWinnerIdByAddress(address)": "14087231",
			"getWinningAmountByAddress(address)": "13c74747",
			"grantRole(bytes32,address)": "2f2ff15d",
			"hasRole(bytes32,address)": "91d14854",
			"lock()": "f83d08ba",
			"numBetSessions()": "989c94b2",
			"numWinners()": "8b7bcc86",
			"pause()": "8456cb59",
			"paused()": "5c975abb",
			"play(uint256,uint8[],uint8,uint256)": "a6e4d802",
			"renounceRole(bytes32,address)": "36568abe",
			"revokeRole(bytes32,address)": "d547741f",
			"supportsInterface(bytes4)": "01ffc9a7",
			"unlock()": "a69df4b5",
			"unpause()": "3f4ba83a",
			"updateCorePoolAmount()": "b0ea4a8f",
			"updateRatioMaxBetAmount(uint16)": "c6f0ea77",
			"updateRatioPools(uint256,uint256)": "99b7e7d7",
			"winnerAddressById(uint256)": "995e5b66",
			"winnerIdByAddress(address)": "5c041425",
			"withdrawStakingPoolAmount(uint256)": "e3b25f19",
			"withdrawTreasuryPoolAmount(uint256)": "ecb858c1",
			"withdrawWinningAmount()": "a8e2cffc"
		}
	},
	"abi": [
		{
			"inputs": [
				{
					"internalType": "address payable",
					"name": "corePoolAddress",
					"type": "address"
				},
				{
					"internalType": "address payable",
					"name": "stakingPoolAddress",
					"type": "address"
				},
				{
					"internalType": "address payable",
					"name": "treasuryPoolAddress",
					"type": "address"
				}
			],
			"stateMutability": "nonpayable",
			"type": "constructor"
		},
		{
			"inputs": [],
			"name": "AccessControlBadConfirmation",
			"type": "error"
		},
		{
			"inputs": [
				{
					"internalType": "address",
					"name": "account",
					"type": "address"
				},
				{
					"internalType": "bytes32",
					"name": "neededRole",
					"type": "bytes32"
				}
			],
			"name": "AccessControlUnauthorizedAccount",
			"type": "error"
		},
		{
			"inputs": [],
			"name": "EnforcedPause",
			"type": "error"
		},
		{
			"inputs": [],
			"name": "ExpectedPause",
			"type": "error"
		},
		{
			"anonymous": false,
			"inputs": [
				{
					"indexed": true,
					"internalType": "uint256",
					"name": "betSessionId",
					"type": "uint256"
				},
				{
					"indexed": true,
					"internalType": "uint8[]",
					"name": "gModeResults",
					"type": "uint8[]"
				},
				{
					"indexed": true,
					"internalType": "uint8",
					"name": "sModeResult",
					"type": "uint8"
				}
			],
			"name": "FinalizeBetSessionEvent",
			"type": "event"
		},
		{
			"anonymous": false,
			"inputs": [
				{
					"indexed": true,
					"internalType": "uint256",
					"name": "betSessionId",
					"type": "uint256"
				}
			],
			"name": "NewBetSessionEvent",
			"type": "event"
		},
		{
			"anonymous": false,
			"inputs": [
				{
					"indexed": false,
					"internalType": "address",
					"name": "account",
					"type": "address"
				}
			],
			"name": "Paused",
			"type": "event"
		},
		{
			"anonymous": false,
			"inputs": [
				{
					"indexed": true,
					"internalType": "uint256",
					"name": "betSessionId",
					"type": "uint256"
				},
				{
					"indexed": true,
					"internalType": "uint8[]",
					"name": "luckyNumbers",
					"type": "uint8[]"
				},
				{
					"indexed": false,
					"internalType": "enum MegaBetMain.PlayMode",
					"name": "mode",
					"type": "uint8"
				},
				{
					"indexed": false,
					"internalType": "uint256",
					"name": "betAmount",
					"type": "uint256"
				}
			],
			"name": "PlayEvent",
			"type": "event"
		},
		{
			"anonymous": false,
			"inputs": [
				{
					"indexed": true,
					"internalType": "bytes32",
					"name": "role",
					"type": "bytes32"
				},
				{
					"indexed": true,
					"internalType": "bytes32",
					"name": "previousAdminRole",
					"type": "bytes32"
				},
				{
					"indexed": true,
					"internalType": "bytes32",
					"name": "newAdminRole",
					"type": "bytes32"
				}
			],
			"name": "RoleAdminChanged",
			"type": "event"
		},
		{
			"anonymous": false,
			"inputs": [
				{
					"indexed": true,
					"internalType": "bytes32",
					"name": "role",
					"type": "bytes32"
				},
				{
					"indexed": true,
					"internalType": "address",
					"name": "account",
					"type": "address"
				},
				{
					"indexed": true,
					"internalType": "address",
					"name": "sender",
					"type": "address"
				}
			],
			"name": "RoleGranted",
			"type": "event"
		},
		{
			"anonymous": false,
			"inputs": [
				{
					"indexed": true,
					"internalType": "bytes32",
					"name": "role",
					"type": "bytes32"
				},
				{
					"indexed": true,
					"internalType": "address",
					"name": "account",
					"type": "address"
				},
				{
					"indexed": true,
					"internalType": "address",
					"name": "sender",
					"type": "address"
				}
			],
			"name": "RoleRevoked",
			"type": "event"
		},
		{
			"anonymous": false,
			"inputs": [
				{
					"indexed": false,
					"internalType": "address",
					"name": "account",
					"type": "address"
				}
			],
			"name": "Unpaused",
			"type": "event"
		},
		{
			"inputs": [],
			"name": "ADMINER_ROLE",
			"outputs": [
				{
					"internalType": "bytes32",
					"name": "",
					"type": "bytes32"
				}
			],
			"stateMutability": "view",
			"type": "function"
		},
		{
			"inputs": [],
			"name": "DEFAULT_ADMIN_ROLE",
			"outputs": [
				{
					"internalType": "bytes32",
					"name": "",
					"type": "bytes32"
				}
			],
			"stateMutability": "view",
			"type": "function"
		},
		{
			"inputs": [],
			"name": "G_MODE_WINNING_RATE",
			"outputs": [
				{
					"internalType": "uint256",
					"name": "",
					"type": "uint256"
				}
			],
			"stateMutability": "view",
			"type": "function"
		},
		{
			"inputs": [],
			"name": "PAUSER_ROLE",
			"outputs": [
				{
					"internalType": "bytes32",
					"name": "",
					"type": "bytes32"
				}
			],
			"stateMutability": "view",
			"type": "function"
		},
		{
			"inputs": [],
			"name": "SKEWER_2_WINNING_RATE",
			"outputs": [
				{
					"internalType": "uint256",
					"name": "",
					"type": "uint256"
				}
			],
			"stateMutability": "view",
			"type": "function"
		},
		{
			"inputs": [],
			"name": "SKEWER_3_WINNING_RATE",
			"outputs": [
				{
					"internalType": "uint256",
					"name": "",
					"type": "uint256"
				}
			],
			"stateMutability": "view",
			"type": "function"
		},
		{
			"inputs": [],
			"name": "SKEWER_4_WINNING_RATE",
			"outputs": [
				{
					"internalType": "uint256",
					"name": "",
					"type": "uint256"
				}
			],
			"stateMutability": "view",
			"type": "function"
		},
		{
			"inputs": [],
			"name": "S_MODE_WINNING_RATE",
			"outputs": [
				{
					"internalType": "uint256",
					"name": "",
					"type": "uint256"
				}
			],
			"stateMutability": "view",
			"type": "function"
		},
		{
			"inputs": [],
			"name": "_corePoolAddress",
			"outputs": [
				{
					"internalType": "address payable",
					"name": "",
					"type": "address"
				}
			],
			"stateMutability": "view",
			"type": "function"
		},
		{
			"inputs": [],
			"name": "_corePoolAmount",
			"outputs": [
				{
					"internalType": "uint256",
					"name": "",
					"type": "uint256"
				}
			],
			"stateMutability": "view",
			"type": "function"
		},
		{
			"inputs": [],
			"name": "_isLock",
			"outputs": [
				{
					"internalType": "bool",
					"name": "",
					"type": "bool"
				}
			],
			"stateMutability": "view",
			"type": "function"
		},
		{
			"inputs": [],
			"name": "_ratioCorePool",
			"outputs": [
				{
					"internalType": "uint256",
					"name": "",
					"type": "uint256"
				}
			],
			"stateMutability": "view",
			"type": "function"
		},
		{
			"inputs": [],
			"name": "_ratioMaxBetAmount",
			"outputs": [
				{
					"internalType": "uint16",
					"name": "",
					"type": "uint16"
				}
			],
			"stateMutability": "view",
			"type": "function"
		},
		{
			"inputs": [],
			"name": "_ratioStakingPool",
			"outputs": [
				{
					"internalType": "uint256",
					"name": "",
					"type": "uint256"
				}
			],
			"stateMutability": "view",
			"type": "function"
		},
		{
			"inputs": [],
			"name": "_ratioTresuryPool",
			"outputs": [
				{
					"internalType": "uint256",
					"name": "",
					"type": "uint256"
				}
			],
			"stateMutability": "view",
			"type": "function"
		},
		{
			"inputs": [],
			"name": "_stakingPoolAddress",
			"outputs": [
				{
					"internalType": "address payable",
					"name": "",
					"type": "address"
				}
			],
			"stateMutability": "view",
			"type": "function"
		},
		{
			"inputs": [],
			"name": "_stakingPoolAmount",
			"outputs": [
				{
					"internalType": "uint256",
					"name": "",
					"type": "uint256"
				}
			],
			"stateMutability": "view",
			"type": "function"
		},
		{
			"inputs": [],
			"name": "_treasuryPoolAddress",
			"outputs": [
				{
					"internalType": "address payable",
					"name": "",
					"type": "address"
				}
			],
			"stateMutability": "view",
			"type": "function"
		},
		{
			"inputs": [],
			"name": "_treasuryPoolAmount",
			"outputs": [
				{
					"internalType": "uint256",
					"name": "",
					"type": "uint256"
				}
			],
			"stateMutability": "view",
			"type": "function"
		},
		{
			"inputs": [
				{
					"internalType": "uint256",
					"name": "",
					"type": "uint256"
				}
			],
			"name": "betSessions",
			"outputs": [
				{
					"internalType": "enum MegaBetMain.BetSessionStatus",
					"name": "status",
					"type": "uint8"
				},
				{
					"internalType": "uint256",
					"name": "created_time",
					"type": "uint256"
				},
				{
					"internalType": "uint8",
					"name": "s_mode_results",
					"type": "uint8"
				},
				{
					"internalType": "uint256",
					"name": "numPlayers",
					"type": "uint256"
				}
			],
			"stateMutability": "view",
			"type": "function"
		},
		{
			"inputs": [],
			"name": "createNewBetSession",
			"outputs": [],
			"stateMutability": "nonpayable",
			"type": "function"
		},
		{
			"inputs": [
				{
					"internalType": "uint256",
					"name": "betSessionId",
					"type": "uint256"
				},
				{
					"internalType": "uint8[]",
					"name": "gModeResults",
					"type": "uint8[]"
				},
				{
					"internalType": "uint8",
					"name": "sModeResult",
					"type": "uint8"
				}
			],
			"name": "finalizeBetSession",
			"outputs": [],
			"stateMutability": "nonpayable",
			"type": "function"
		},
		{
			"inputs": [
				{
					"internalType": "uint256",
					"name": "betSessionId",
					"type": "uint256"
				}
			],
			"name": "getBetSessionStatusById",
			"outputs": [
				{
					"internalType": "enum MegaBetMain.BetSessionStatus",
					"name": "",
					"type": "uint8"
				}
			],
			"stateMutability": "view",
			"type": "function"
		},
		{
			"inputs": [],
			"name": "getNumBetSessions",
			"outputs": [
				{
					"internalType": "uint256",
					"name": "",
					"type": "uint256"
				}
			],
			"stateMutability": "view",
			"type": "function"
		},
		{
			"inputs": [
				{
					"internalType": "uint256",
					"name": "betSessionId",
					"type": "uint256"
				}
			],
			"name": "getNumberPlayersInBetSession",
			"outputs": [
				{
					"internalType": "uint256",
					"name": "",
					"type": "uint256"
				}
			],
			"stateMutability": "view",
			"type": "function"
		},
		{
			"inputs": [
				{
					"internalType": "bytes32",
					"name": "role",
					"type": "bytes32"
				}
			],
			"name": "getRoleAdmin",
			"outputs": [
				{
					"internalType": "bytes32",
					"name": "",
					"type": "bytes32"
				}
			],
			"stateMutability": "view",
			"type": "function"
		},
		{
			"inputs": [
				{
					"internalType": "uint256",
					"name": "winnerId",
					"type": "uint256"
				}
			],
			"name": "getWinnerAddressById",
			"outputs": [
				{
					"internalType": "address",
					"name": "",
					"type": "address"
				}
			],
			"stateMutability": "view",
			"type": "function"
		},
		{
			"inputs": [
				{
					"internalType": "address",
					"name": "winnerAddress",
					"type": "address"
				}
			],
			"name": "getWinnerIdByAddress",
			"outputs": [
				{
					"internalType": "uint256",
					"name": "",
					"type": "uint256"
				}
			],
			"stateMutability": "view",
			"type": "function"
		},
		{
			"inputs": [
				{
					"internalType": "address",
					"name": "winnerAddress",
					"type": "address"
				}
			],
			"name": "getWinningAmountByAddress",
			"outputs": [
				{
					"internalType": "uint256",
					"name": "",
					"type": "uint256"
				}
			],
			"stateMutability": "view",
			"type": "function"
		},
		{
			"inputs": [
				{
					"internalType": "bytes32",
					"name": "role",
					"type": "bytes32"
				},
				{
					"internalType": "address",
					"name": "account",
					"type": "address"
				}
			],
			"name": "grantRole",
			"outputs": [],
			"stateMutability": "nonpayable",
			"type": "function"
		},
		{
			"inputs": [
				{
					"internalType": "bytes32",
					"name": "role",
					"type": "bytes32"
				},
				{
					"internalType": "address",
					"name": "account",
					"type": "address"
				}
			],
			"name": "hasRole",
			"outputs": [
				{
					"internalType": "bool",
					"name": "",
					"type": "bool"
				}
			],
			"stateMutability": "view",
			"type": "function"
		},
		{
			"inputs": [],
			"name": "lock",
			"outputs": [],
			"stateMutability": "nonpayable",
			"type": "function"
		},
		{
			"inputs": [],
			"name": "numBetSessions",
			"outputs": [
				{
					"internalType": "uint256",
					"name": "",
					"type": "uint256"
				}
			],
			"stateMutability": "view",
			"type": "function"
		},
		{
			"inputs": [],
			"name": "numWinners",
			"outputs": [
				{
					"internalType": "uint256",
					"name": "",
					"type": "uint256"
				}
			],
			"stateMutability": "view",
			"type": "function"
		},
		{
			"inputs": [],
			"name": "pause",
			"outputs": [],
			"stateMutability": "nonpayable",
			"type": "function"
		},
		{
			"inputs": [],
			"name": "paused",
			"outputs": [
				{
					"internalType": "bool",
					"name": "",
					"type": "bool"
				}
			],
			"stateMutability": "view",
			"type": "function"
		},
		{
			"inputs": [
				{
					"internalType": "uint256",
					"name": "betSessionId",
					"type": "uint256"
				},
				{
					"internalType": "uint8[]",
					"name": "luckyNumbers",
					"type": "uint8[]"
				},
				{
					"internalType": "enum MegaBetMain.PlayMode",
					"name": "mode",
					"type": "uint8"
				},
				{
					"internalType": "uint256",
					"name": "betAmount",
					"type": "uint256"
				}
			],
			"name": "play",
			"outputs": [],
			"stateMutability": "payable",
			"type": "function"
		},
		{
			"inputs": [
				{
					"internalType": "bytes32",
					"name": "role",
					"type": "bytes32"
				},
				{
					"internalType": "address",
					"name": "callerConfirmation",
					"type": "address"
				}
			],
			"name": "renounceRole",
			"outputs": [],
			"stateMutability": "nonpayable",
			"type": "function"
		},
		{
			"inputs": [
				{
					"internalType": "bytes32",
					"name": "role",
					"type": "bytes32"
				},
				{
					"internalType": "address",
					"name": "account",
					"type": "address"
				}
			],
			"name": "revokeRole",
			"outputs": [],
			"stateMutability": "nonpayable",
			"type": "function"
		},
		{
			"inputs": [
				{
					"internalType": "bytes4",
					"name": "interfaceId",
					"type": "bytes4"
				}
			],
			"name": "supportsInterface",
			"outputs": [
				{
					"internalType": "bool",
					"name": "",
					"type": "bool"
				}
			],
			"stateMutability": "view",
			"type": "function"
		},
		{
			"inputs": [],
			"name": "unlock",
			"outputs": [],
			"stateMutability": "nonpayable",
			"type": "function"
		},
		{
			"inputs": [],
			"name": "unpause",
			"outputs": [],
			"stateMutability": "nonpayable",
			"type": "function"
		},
		{
			"inputs": [],
			"name": "updateCorePoolAmount",
			"outputs": [],
			"stateMutability": "payable",
			"type": "function"
		},
		{
			"inputs": [
				{
					"internalType": "uint16",
					"name": "ratioMaxBetAmount",
					"type": "uint16"
				}
			],
			"name": "updateRatioMaxBetAmount",
			"outputs": [],
			"stateMutability": "nonpayable",
			"type": "function"
		},
		{
			"inputs": [
				{
					"internalType": "uint256",
					"name": "ratioCorePool",
					"type": "uint256"
				},
				{
					"internalType": "uint256",
					"name": "ratioStakingPool",
					"type": "uint256"
				}
			],
			"name": "updateRatioPools",
			"outputs": [],
			"stateMutability": "nonpayable",
			"type": "function"
		},
		{
			"inputs": [
				{
					"internalType": "uint256",
					"name": "",
					"type": "uint256"
				}
			],
			"name": "winnerAddressById",
			"outputs": [
				{
					"internalType": "address",
					"name": "",
					"type": "address"
				}
			],
			"stateMutability": "view",
			"type": "function"
		},
		{
			"inputs": [
				{
					"internalType": "address",
					"name": "",
					"type": "address"
				}
			],
			"name": "winnerIdByAddress",
			"outputs": [
				{
					"internalType": "uint256",
					"name": "",
					"type": "uint256"
				}
			],
			"stateMutability": "view",
			"type": "function"
		},
		{
			"inputs": [
				{
					"internalType": "uint256",
					"name": "amount",
					"type": "uint256"
				}
			],
			"name": "withdrawStakingPoolAmount",
			"outputs": [],
			"stateMutability": "nonpayable",
			"type": "function"
		},
		{
			"inputs": [
				{
					"internalType": "uint256",
					"name": "amount",
					"type": "uint256"
				}
			],
			"name": "withdrawTreasuryPoolAmount",
			"outputs": [],
			"stateMutability": "nonpayable",
			"type": "function"
		},
		{
			"inputs": [],
			"name": "withdrawWinningAmount",
			"outputs": [],
			"stateMutability": "nonpayable",
			"type": "function"
		}
	]
}